:020000040000FA
:10000000786D00207D2F0000EB640000512F000070
:10001000512F0000512F0000512F0000512F0000E0
:10002000000000000000000000000000F12A0000B5
:10003000512F000000000000512F0000512F000040
:100040004D2B00004D2B00004D2B00004D2B0000D0
:100050004D2B00004D2B00004D2B00004D2B0000C0
:100060004D2B00004D2B00004D2B00004D2B0000B0
:100070004D2B00004D2B00004D2B00004D2B0000A0
:100080004D2B00004D2B00004D2B00004D2B000090
:100090004D2B00004D2B00004D2B00004D2B000080
:1000A0004D2B00004D2B00004D2B00004D2B000070
:1000B0004D2B00004D2B00004D2B00004D2B000060
:1000C0004D2B00004D2B00004D2B00004D2B000050
:1000D0004D2B00004D2B00004D2B00004D2B000040
:1000E0004D2B00004D2B00004D2B00004D2B000030
:1000F0004D2B00004D2B00004D2B00004D2B000020
:100100004D2B00004D2B00004D2B00004D2B00000F
:100110004D2B00004D2B00004D2B00004D2B0000FF
:100120004D2B00004D2B00004D2B00004D2B0000EF
:100130004D2B00004D2B00004D2B00004D2B0000DF
:100140004D2B000053B94AB9002908BF00281CBF35
:100150004FF0FF314FF0FF3000F00CB8ADF1080C5C
:100160006DE904CE00F008F8DDF804E0DDE90223D3
:1001700004B07047704700BF2DE9F04786468C46B3
:100180000846089E154674461946002B40F0C1806B
:100190008542B2FA82F245D94AB1C2F1200300FA8F
:1001A00002FC954094402EFA03F343EA0C0C4FEA0C
:1001B000154EA8B2230CBCFBFEF80EFB18CC08FBB6
:1001C00000F943EA0C43994528D9EB1808F1FF37A9
:1001D00004D2994502D9A8F102072B44A3EB0903E5
:1001E000A4B2B3FBFEFC0EFB1C330CFB00F044EA94
:1001F0000344A04214D92C190CF1FF3304D2A042BD
:1002000002D9ACF102032C44241A43EA07401EB180
:10021000D440002334607360BDE8F0874746DDE7D3
:100220006346F1E792BB431B01214FEA154EAFB283
:10023000200CB3FBFEFC0EFB1C330CFB07F840EA62
:100240000343984561D9EB180CF1FF3004D298456F
:1002500002D9ACF102002B44A3EB0803A4B2B3FB18
:10026000FEFC0EFB1C330CFB07F744EA0344A742D9
:100270004DD92C190CF1FF3304D2A74202D9ACF1AD
:1002800002032C44E41B43EA0040C0E7C2F1200310
:100290009540944020FA03F12EFA03F34FEA154EED
:1002A0009040AFB20343B1FBFEFC0EFB1C10190CD7
:1002B0000CFB07F841EA0041884522D969180CF186
:1002C000FF3004D2884502D9ACF102002944A1EBE9
:1002D00008019BB2B1FBFEFC0EFB1C110CFB07F7E7
:1002E00043EA01439F420ED9EB180CF1FF3104D2CF
:1002F0009F4202D9ACF102012B44DB1B41EA0041D1
:1003000093E76046E3E76146F7E76046A4E76346A4
:10031000B8E7834206D916B9002108467CE7C6E94A
:1003200000E0F9E7B3FA83F78FB9834201D372454E
:1003300008D8BEEB020460EB030301209C461EB903
:10034000002169E73846FAE7C6E9004CF8E7C7F14B
:10035000200CBB400EFA07F522FA0CF42EFA0CF131
:10036000BA401C4320FA0CF3B8404FEA1449014349
:100370001FFA84FEB3FBF9F809FB18300B0C08FBDD
:100380000EFA43EA00439A4540D9E31808F1FF30DA
:1003900004D29A4502D9A8F102002344A3EB0A0330
:1003A00089B2B3FBF9F809FB183308FB0EFE41EAEA
:1003B00003418E452CD9611808F1FF3304D28E45D4
:1003C00002D9A8F10203214443EA0040A1EB0E0147
:1003D000A0FB02984145CE46434602D306D14D4587
:1003E00004D20138B9EB020E68EB0403002EA7D04B
:1003F000B5EB0E0261EB030101FA0CFC22FA07F3E4
:10040000F9404CEA0303C6E9003199E74046C5E7E5
:100410004346D9E77FB53F4B3F4A4921C3F8002601
:100420003E48C3F80426C3F80826C3F80C26C3F8D0
:100430001026C3F81426C3F81826C3F81C2605F0A6
:100440001AFD00F09FF8364C204608F0DFF820B384
:100450002569A6682B681A2143F080632B6020462B
:100460003368304A98472046736801A9984720B9F5
:100470002A68019B53405A010FD54FF05023D3F8FF
:1004800000340BB1DB0708D54921274805F0F3FC00
:1004900001F0A2FD254802F00BF901A800F0D6FCFE
:1004A000234B1B68834204D04521224805F0E3FC1E
:1004B000FEE7039A4921204805F0DDFC49211F4849
:1004C00005F0D9FC69469DF8080000F03BF8009B58
:1004D000039C1C44019B1D8900F08AFF661900F0F3
:1004E000CFFF00F069FF02F08BFD002383F30B8840
:1004F00083F30A88625982F3088883F31488BFF370
:100500006F8FBFF36F8F7368984745210C4805F0D4
:10051000B2FCFEE7008001503546526EA48D00000B
:10052000B086000011000100BD8D0000A889000008
:1005300008020020E18D0000048E0000338E0000D0
:10054000588E0000024608B538B105480023452101
:1005500005F091FC6FF0150008BD0860FCE700BFD6
:100560007B8E00001FB50C46014601AA044806F028
:1005700030F918B9019B2360029B636004B010BD81
:10058000F88600004FF4C051014803F0E7BE00BFF9
:10059000AA1B00202DE9F04FDFF8E4A1F9B038A83C
:1005A000DDE9844817461D46DAF8006007F0A8FE2A
:1005B000002138A803F0E6FF3CB1B8F1000F04DDDC
:1005C0004246214638A807F09FFE4FF000097B897C
:1005D000B7F808809844FB689844C84521D80DA90D
:1005E00038A807F0CAFE869B23B1202218460DA921
:1005F00005F0B0FF00232A46009339464FF6FF73FB
:1006000007A805F0D4F8044638B928460C9F00F036
:10061000DDF987421BD94FF0FF34204679B0BDE8A1
:10062000F08F839BA8EB090B9B4528BF9B4649464F
:100630005B462846829A05F02CFC04460028ECD143
:100640005A46829938A807F05FFED944C5E74FF0B3
:10065000FF37DFF830910DF1160305AA06A907A8A8
:1006600005F0F3F8B0F10008C0F288807BD1BDF846
:1006700016B0BBF1100F18D1BDF81440202CCAD110
:1006800023462846069938AA05F003FC8046002830
:1006900074D1224638A90DA805F023F904463A4B37
:1006A0001B688342B9D10124D5E7BBF1010F37D1D3
:1006B000BDF81430202BAED82846069938AA05F08C
:1006C000E8FB8046002859D19DF814B0BBF1200FFB
:1006D00003D94FF0FF384746BDE7D9F800302B4F1C
:1006E0000393039B9845F4DA1DA807F009FE002147
:1006F0001DA803F047FF7A681DA8126857F8081B69
:1007000007F002FE15A91DA807F037FE5A4638A9C2
:1007100015A805F0F8FE0028DDD008F10108E0E793
:10072000BBF1200F97D17B1C95D0D9F80030BB428C
:1007300016DDBDF81430B3F5807F7FF46CAF28462A
:10074000069938AA05F0A5FB8046B8B9FFB259460C
:10075000BDF81430009738AA0DA800F019F8064625
:100760004FF0FF3777E73CB1074B1B68B34218BF28
:10077000DAF80060344650E74FF0010844464CE791
:1007800000000020B089000008020020B4890000A9
:100790002DE9F04F1F46ADF54B7D6A4B804627A8EB
:1007A0009DF850638A4691461D6807F066FD664BCA
:1007B0008AAA53F8364003EBC6035B6802941B68B1
:1007C00002A81C442146302306F0EBFA68BB029BCA
:1007D0008A9A13449C4228D1214629AA02A806F0ED
:1007E000F4FA10BB0DF1B00B5A46214602A806F0F0
:1007F000ECFA0646C8B929A806F007FE029B289025
:100800009C4212D133463246CDE9006B29A927A874
:1008100007F0F0FC48B927A803F046FE28B929A83C
:1008200006F0F3FD874228900AD027A807F02FFD95
:1008300027A807F02CFD28460DF54B7DBDE8F08F6D
:10084000B7F5807F02D04FF0FF35F1E7BAF1200F06
:10085000F9D149468AAA27A803F04CFE044600288D
:10086000F1D19DF82733BC2BEDD152AFDF263D46A9
:1008700003900CA807F044FD00210CA803F082FEB1
:1008800020220DF207310CA807F03EFD042203A937
:100890000CA807F039FD04A90CA807F06EFD202E66
:1008A000B146A8BF4FF020099DF80F3038460133FC
:1008B0004A4604A9A6EB09068DF80F3005F04AFE5A
:1008C000002E4F44D5DC2F46294600228AAB0878FB
:1008D00013F8016B01327040DF2A01F8010BF6D1E9
:1008E0002B7803F07F032B7017F8016B002EAAD131
:1008F0000134BE2CF8D195F8BE30012BA3D10CA841
:1009000007F0FEFC31460CA803F03CFE08220F491C
:100910000CA807F0F9FC414620220CA807F0F4FCD3
:1009200020220DF207210CA807F0EEFC04A90CA868
:1009300007F023FD20220DF2073104A804F0D1FFB7
:10094000054682E700000020B4890000A18E000067
:100950002DE9F041022386B00D466F460026DFF8F0
:100960006880ADF8003017F8010B01A901F028FAF2
:100970000446A0B901981023816802AA103905F035
:1009800088FA0446019805F083FA44B910224146DA
:1009900002A805F0B8FD40B12EB14FF0FF3420465B
:1009A00006B0BDE8F0810126DDE7019806F000F908
:1009B0000423A0F108012A46019805F06AFA0446CA
:1009C000019805F065FAEAE7948D000007B504F098
:1009D0009CFF6946FFF7C6FD38B10548452105F083
:1009E0004AFA002003B05DF804FB0098FAE700BF64
:1009F000A98E00002DE9F041354B88B00646002055
:100A00000C461D6804F0C8FE06A9C0B201F0D8F972
:100A1000002857D1214604F0BFFE2C2507A9C0B2FB
:100A200005FB046501F0CCF9002833D02C2767437F
:100A300006EB0708D8F81010069B11F0100138D10A
:100A40004FF480720192234A08460092CDE90311C7
:100A50002A460291FFF79EFD05461F4BF259069864
:100A60009A420CD1D8F80C20B8F808309B1806D25E
:100A70008268934203D2194B1B68AB421FD02CB340
:100A80008268002105F02FFA154A4521154805F026
:100A9000F2F913E0079805F041FA0746079805F0C8
:100AA000F7F96B1EEA1C13F8011FB942BED193423D
:100AB000F9D11CB13046069905F00CF801250698CD
:100AC00005F0E6F9284608B0BDE8F081064ADCE703
:100AD00000000020AA3300203DB8F3960802002051
:100AE000EC8E0000F68E0000E48E000073B50D461B
:100AF000002104462846CDE9001104F0AAFF30B3D6
:100B0000164E2368B34203D1204601AA04F035FFF4
:100B1000E36AB34204D16A460121204604F02DFF66
:100B2000DDE90032934288BF0193019BAB60019ADB
:100B30002946204600F036FB094B1A68002A03DDDF
:100B40005721084805F097F9002002B070BD05F163
:100B50000801FFF7FDFEAB680193E8E73DB8F396A7
:100B60006C1600201E8F00002DE9F84F8846914634
:100B70009A460026DFF868B01A4C1B4D0B9B9E422C
:100B800001D300200FE00B9B40469F1BB7F5806F01
:100B900028BF4FF48067124A3B4606EB0A0105F076
:100BA00078F910B10120BDE8F88F0A993B465A4602
:100BB0004846711805F082F90028F3D1C4F80056B0
:100BC0003E44C4F80456C4F80856C4F80C56C4F899
:100BD0001056C4F81456C4F81856C4F81C56CDE77D
:100BE0000C120020008001503546526E2DE9FF4165
:100BF0000E4600218E4B044643628E4B0365084629
:100C000004F0CAFD04F12001C0B201F0D9F80121BD
:100C1000002004F0C1FD04F14C01C0B201F0D0F895
:100C20000546204604F0EAFE074668B90022204641
:100C3000114604F08CFE074608B3002257217E4877
:100C400005F019F9012390E04FF4807257217B4899
:100C500005F011F901239F4284F85830E6D194F849
:100C60005830042B8DF8073000F28280012B00F2FF
:100C7000858000F09C80FF2384F8583097E0204660
:100C800000F0A6F90028DDD0684604F0D9FE6946D8
:100C9000204604F074FF18B13A4657216848CFE760
:100CA000684604F0D6FE80F001016A462046C9B2CB
:100CB00004F04DFE02460028BFD1684604F0C9FE8C
:100CC000074660BB69462046FFF710FF9DF80730D6
:100CD00084F85830033B012B06D8384604F09DFFBA
:100CE00010B1FF2384F858309DF80730023B022BE7
:100CF0000BD8002004F07FFF38B1FF2384F8583070
:100D00004521504805F0B7F8FEE794F85830FF2B1E
:100D1000F6D06A460021204604F019FE92E79DF8BD
:100D20000780B8F1010F15D1104603F047F9831E73
:100D3000022B07460BD841462046FFF75BFE424B8D
:100D40001B68984203D0012814BF0527012784F8A7
:100D5000587084E701212046FFF74CFE3A4B1B6890
:100D6000984214BF05239DF8073084F8583076E781
:100D7000052B80D1002004F050FF13E06946204687
:100D8000FFF7B4FE94F858300546DA1E012A0CD855
:100D9000002004F042FF054600287FF46CAF0020DD
:100DA00004F029FF054610B165E7022BF7D094F84F
:100DB0005830FF2B04D14521224805F05CF8FEE7AE
:100DC000012B10D06A460021204604F0C0FD0546E4
:100DD00048B1E06C05F05CF8206A05F059F8284647
:100DE00004B0BDE8F08100212046FFF703FE07466E
:100DF000DFF85480D8F8003098420FD1102200213B
:100E0000684605F0B2FB206A04F0CFFC3071236A1B
:100E10005B683460D8F80050B360DAE7E06C05F046
:100E200037F8206A05F034F8002D08BF3D46D6E7B4
:100E30000C0A00200C0200208F8F00004D8F000054
:100E4000BB8F0000E58F00000802002038B5064D7A
:100E5000044660220021284605F087FB21462846EB
:100E6000FFF7C4FE38BD00BF0C16002073B5164650
:100E70001D4643B15B79012B07D121B9204B2A686C
:100E80001B689A4217D8002418E0022BFBD12B686C
:100E9000012B07D91A4A12689342F4D8B1FA81F1AA
:100EA0004909F0E7EFD131B10129ECD129790239B3
:100EB00018BF0121E7E70021436A5C68002004F0C5
:100EC0006BFC01A9C0B200F07BFF30B10124019896
:100ED00004F0DEFF204602B070BD214620233246DA
:100EE000019804F0D6FF04460028EFD1002DEED083
:100EF0003468044BE41A18BF4FF0FF34E7E700BF33
:100F0000040000203DB8F3962DE9F04F07460C464B
:100F100085B001460020164604F0EAFC051E51DBB0
:100F20003846E46D04F0F1FC5FFA84F94FF0000AF2
:100F30004FF0010B4FF0FF346B1E09FB03089DB906
:100F4000BAF1010F03DD4521204804F094FF631C32
:100F500006D0FF2C2ADC40F2011301343460B38048
:100F6000284605B0BDE8F08F6B1E00934146012373
:100F700038460DF10F0204F08CFF031E019323DBB2
:100F8000012238460DF10F0105F026FE019B40B10C
:100F90005B4501D00AF1010A9B46009DA8EB0908B8
:100FA000CDE7B4F1FF3F08BF2C46F5E70223A4F5D7
:100FB00080747371631004F00104013301343360F1
:100FC0003471CDE70725CBE70125C9E7F18F000094
:100FD00038B5816A426D914208D0531C8B4205D0CE
:100FE0005721144804F047FF002038BDB1F5807F39
:100FF0001CD957211048F5E7446A056D04EBC3047A
:1010000005EBC30564686D68AC4202D057210B48FC
:10101000E8E701339A42EFD1914205D9436A03EBE5
:10102000C2035B68A342F1D10120DEE700231C4626
:10103000F0E700BF149000004C9000007B9000008F
:1010400000B589B0022004A905F038FE9DF81020F3
:10105000012A41D0254B2649032A08BF0B469DF89B
:101060001320492102929DF81220224801929DF8F6
:1010700011200092204A04F0FEFE082006A905F087
:101080001DFE9DF81820012A28D0184B1849032A64
:1010900008BF0B469DF81B20492102929DF81A209B
:1010A000144801929DF819200092144A04F0E3FEBE
:1010B0009DF81030012B13D19DF81230032B0FD166
:1010C0009DF81830012B0BD00D48492104F0D3FEB8
:1010D000022009B05DF804FB0A4BC0E7094BD9E7D1
:1010E0000948492104F0C7FE0020F2E7A79000005C
:1010F000B0900000C4900000B69000000591000080
:1011000015910000AB9000003491000070B54B6861
:1011100014461E4A03F0FF23934206460D4686B04E
:101120002FD10B68012B2CD1204604A902F0F0FE30
:101130009DF81020012A26D0154B1649032A08BF16
:101140000B469DF81320492102929DF81220124867
:1011500001929DF811200092104A04F08CFE9DF837
:101160001030032B0DD12146304604F0B3FC20464D
:1011700005F097FD2046A96804F0DAFB204602F04E
:10118000A7FE06B070BD064BDBE700BF0001000400
:10119000A7900000B0900000C490000005910000EE
:1011A000AB9000002DE9F04F05460C467D484921E3
:1011B00089B0174604F05FFE6B6A01225E68002367
:1011C0003344BB42114602F10102F9D3764F204667
:1011D000396004F03EFC08B3E86D04F084FBAB6AB0
:1011E00003F1FF3800233344834202D208F1FF3871
:1011F000F9E73B68434511D357216C4804F03BFEA7
:101200003A6808FB06F3572102FB0662684804F0BF
:1012100032FE0123E37109B0BDE8F08F06A9022078
:1012200000F0CEFD07A9082000F0CAFD214628469F
:10123000079AFFF76BFF6379012B0BD1D7F800807A
:10124000DFF870B13B68DDF81890B8F1000F11D1EC
:101250000123236002234FF0010863713B68DDF82E
:1012600018A0984549D9504604F012FE079804F09A
:101270000FFED0E7226801339B1A98453AD86B6A73
:10128000012A196853F8380003EBC80353F8083CE7
:10129000A0EB010AA3EB0103049311D1079B039375
:1012A000E368022B08D04946284604F013FC224686
:1012B0004946284604F044FC2846039904F00AFCF9
:1012C00032465146484604F003FC049B4A464946D0
:1012D0002846CDE900A6FFF747FC2146284604F042
:1012E000C5FB23680133236020B1DBF800300133F4
:1012F000CBF8003008F1FF38A4E7236898454ED3B7
:101300006A6A4FEAC80352F83810083B0491116822
:10131000DDF81CB00391D1582A6DD0581368A0EBAA
:1013200003092379012B38D1039B3246C91A504651
:10133000059104F0CDFB05994B4652460091284695
:1013400059460196FFF710FC2146284604F08EFB13
:101350000223237118B1174A136801331360324610
:101360004946584604F0B4FBDDE9032351469B1A75
:1013700028465A46CDE90096FFF7F6FB2146284657
:1013800004F074FB2368013323600123237130B11F
:10139000084A13680133136001E0022BDFD008F123
:1013A00001085BE74B9100000400002074910000ED
:1013B000A39100006C160020BFF36F8F72B600235C
:1013C0004FF0FF30094A03F120010133102B42F89E
:1013D0002100F8D100234FF0FF30044A03F16001EF
:1013E0000133102B42F82100F8D1704700E100E0F2
:1013F00038B501224FF0FF3400251A4B29465A60B8
:10140000C3F84843C3F8084303F580535A60C3F850
:101410004843C3F80843A3F55043C3F8005580225E
:10142000C3F80843104805F0A0F8802229460F4869
:1014300005F09BF80E4B8022C3F800552946C3F8EF
:1014400008430C4805F091F8802229460A4805F027
:101450008CF80A4BC3F808454FF05023C3F80843F3
:1014600038BD00BF00400150808000508081005096
:10147000009000508090005080910050007001500A
:101480004FF460320021014805F06FB80080002061
:101490002DE9F043079D15B91560002012E00324E3
:1014A000B5FBF4F404EB4407BD4218BF0134B4F1BA
:1014B000804F09D2A40001348C4200D838B96FF0B3
:1014C0000B001460BDE8F0834FF0FF34F7E70446EB
:1014D0000021DFF8B4E0B94203F1030C04F1040683
:1014E0002BD3A942274623D201F1010CAC451F782A
:1014F00028BF002324494FEAA70E38BF5B7811F8B4
:101500000EE0AC4584F800E001EB131E2EBF3D2336
:101510009B0003F03C034FEA071738BFCB5C07F092
:1015200030071EF80770A3703D2367703746E370DD
:101530000023381A10603B70AFE71CF8034C1CF80E
:10154000023C4FEAA4091EF8099024011CF8018C02
:1015500004F0300406F8049C0EEB131919F804404B
:101560009B0006F8034C03F03C030EEB9814E35C7D
:1015700008F03F0806F8023C1EF80830344606F82A
:10158000013C03316346A6E7629300002DE9F04376
:1015900000273C463D46DDF81CE0DFF82881754514
:1015A0001FD3E4BB00201460BDE8F083013676450C
:1015B00033D013F806C0BCF1200FF7D0AEEB06090C
:1015C000B9F1010FA6EB05050DD0BCF10D0F0AD145
:1015D00003EB060999F80190B9F10A0F6ED1751C59
:1015E000DDE72E46E3E7BCF10A0FF8D02DB9BCF1D8
:1015F0003D0F05D10137022F0DD96FF01500D3E74C
:101600001CF0800FF9D118F80C507F2DF5D03F2D2C
:1016100001D8002FF1D10134E1E73546C1E74FF0A1
:10162000060C04F00706E4080CFB06F60CFB04F4B9
:101630000736E41B04EBD60470B18C420CD80027AB
:10164000014603263C46DFF87CE0DFF87C801D4441
:101650009D4205D10C1AA5E76FF00B001460A3E7BB
:1016600013F8019BA9F10A0C5FFA8CFCBCF1160F70
:1016700004D848FA0CFC1CF0010FE9D01EF809C090
:101680000134BCF1400F08BF013E0CF03F0C042CAC
:101690004CEA8717DCD17EB13C0C012E0C7002D1D4
:1016A00001310024D4E7022E4FEA17244C7016BFF4
:1016B0008F7002310331F4E73446C9E7002DA2D020
:1016C0009BE700BFE2920000F6FFBFFF014B1B68E3
:1016D000184700BF0800002007B50B46002102464E
:1016E0000091034800F014F903B05DF804FB00BF5B
:1016F000CD1600002DE9F047058B044628079046DB
:1017000011D4022905F0070540F0CD80204604F0F1
:10171000C4FA78B10138218B042811D8DFE800F031
:10172000C3106D85950001290CBF45F0100545F0EB
:101730002005258388F31188BFF36F8FBDE8F087FC
:1017400001F0070AAA4500F0A6800027B9463E46E8
:10175000A368002B00F0BD8041F00801218388F3CD
:101760001188BFF36F8FA168002900F0BB800D685E
:10177000002900F0B780334652462046D1F8048055
:10178000C047002D76D02B6829461D46F0E701F0B2
:1017900007035A1F012A1BD8002221F00701062B3C
:1017A000276889B2C4E9002209D13B4603E0628B75
:1017B000013262831B68002BF9D141F002012046FF
:1017C000218304F06AFA00287BD041F0200177E001
:1017D000042B0AD121F0070189B22046218304F0AD
:1017E0005CFA10B141F020012183218B01F0070A3E
:1017F000AA4550D00027B946AAE7236921F007017E
:1018000041F00601062DD3F8009021832DD1B9F1C6
:10181000000F40D041F00801218388F31188BFF305
:101820006F8F20463949C84729E021F00701236915
:1018300041F0040189B2042DD3F804902183E6D04D
:1018400000274FF0040A3E4682E721F00701236992
:1018500041F0050189B2052DD3F808902183D6D037
:1018600000274FF0050A3E4672E700274FF0060AB0
:101870003E466DE72B4687E7B9F1000FD1D14FF017
:101880002003EFF3118883F31288BFF36F8F238B4C
:1018900023F008032383258BEA062ED525F01003B9
:1018A000238305F007056669218B002EBFF66FAF15
:1018B00000232768C4E9003321F0070141F001014A
:1018C0002183218B4FF0000901F0070AAA457FF41C
:1018D0003FAF002F9BD041F00801218388F311888E
:1018E000BFF36F8F002FC7D03D683946334652464D
:1018F000204604F0FEF92F46F4E7AB067FF51AAF59
:1019000025F02003238305F00705FFE61F5D000097
:101910002DE9F04F82464FF000098DB01D46531E51
:1019200001910393039B58785C1C252819D1002052
:101930004FF0FF381E464446034602360290317887
:101940000396392955D81F2914D8002900F0F181B0
:1019500001992520D04701993078D04709F1020933
:10196000E0E7002800F0E5810199D04709F101097D
:101970000394D7E7A1F12002192AE9D801A757F863
:1019800022F000BFED1900005119000051190000AC
:10199000ED190000511900006D1A000051190000E6
:1019A000511900005119000051190000B91A000026
:1019B000ED19000051190000CD1A0000791A00003D
:1019C00051190000871A0000A71A0000A71A00008A
:1019D000A71A0000A71A0000A71A0000A71A000003
:1019E000A71A0000A71A0000A71A0000084601362F
:1019F000A5E7582900F0EE80A1F16302D7B2172FB6
:101A0000A6D8172AA4D801A757F822F07B1C0000FB
:101A1000F31A00005119000051190000511900007B
:101A2000D31A0000F31A00005119000051190000E8
:101A3000D31A00005119000051190000511900007B
:101A4000AF1B000051190000511900004F1C00008D
:101A500051190000F31A000051190000511900003B
:101A6000AF1B000051190000D31A00002520019976
:101A7000D04709F1010955E7029A4FF0000802F03A
:101A8000FE020292B3E7002C0DDAB8F1000F0DDA76
:101A9000029A002A00F045810A2224EAE47402FB3B
:101AA0000414303CA3E7B8F1000FF5DB0A2202FB77
:101AB0000812A2F130089AE7B8F1000F55F8042B8C
:101AC00080F23181002A80F2308154420222029257
:101AD0008DE7682903D1682B06D1482387E76C2955
:101AE00002D16C2B00F02381002B7FF431AF0B4629
:101AF0007DE77A2B06D1752955F8046B14D14FF088
:101B0000000B0CE06C2BF6D04C2BF4D1073525F0F4
:101B10000703752903F10805D3E9006B06D12028D6
:101B20003ED1864F013C09E04FEAE67BBBF1000F56
:101B3000F5DA7642824F6BEB4B0B013C0DF12D0336
:101B4000059300230493304659460A220023FEF7EA
:101B5000F9FA049B303203F1FF3CCDF810C0DDF8F8
:101B600014C00CF8012DCDF814C0B4465A46BCF18F
:101B70000A0F72F1000206468B46E4D2C3F1010B54
:101B800030330DEB0306B8F1000FA6F104066DDA51
:101B9000029BD9077CD4A8EB0B03A4EB0B0413E046
:101BA0002B280ABF674F684F04F1FF34C6E770293E
:101BB0000FD155F8042B0023FAB96FF004034FF04E
:101BC000050B624E053C604F029A92076FD4A04607
:101BD00065E078216C2B03D1002355F8042B08E035
:101BE0004C2BF9D1073525F007031D465B6855F8E6
:101BF000082B232825D1880621D5554F023C0026E5
:101C000001F06001A1F1390B0DF12D0E02F00F0171
:101C1000092988BF594430310EF8011D102A4FEAB6
:101C2000121141EA03714FEA131073F1000306F138
:101C3000FF3C08D2C6F1010B06F13003A1E7454F86
:101C4000DCE7414FDBE766460A460346DEE755F828
:101C5000046B304604F050FCB8F1000F834602DB01
:101C60004045A8BFC3464FF00008374FA8EB0B0311
:101C7000002B92DDA4EB0804A6E755F8043B4FF0D7
:101C8000010B8DF81830013C4FF0FF3306AE9AE798
:101C9000A046EBE7029320200199D047029BB8F1C0
:101CA0000108F7D524EAE472013C9144A41AB8462D
:101CB00006E0049302920199D047029A049B904651
:101CC000424612F8010B0028F3D11A46013A15D505
:101CD000002BACBFC7EB03077F425B46013B15D52A
:101CE000BBF1000FA8BF5F4426464F44013E14D508
:101CF000002CA8BF3F1907EB080913E604930292D2
:101D000030200199D047049B029ADFE702930199A2
:101D100016F8010BD047029BE0E701992020D0473D
:101D2000E4E70122D3E6904661E614465FE64C23E1
:101D30005DE648460DB0BDE8F08F00BF7E9800001C
:101D4000B3930000B5930000E29B0000BD93000038
:101D5000B7930000BA93000008B54FF02002EFF3EC
:101D6000118382F31288BFF36F8F01F037F90348B4
:101D700003F086FF00F022FEFCE700BFC3930000E3
:101D80004FF02002EFF3118382F31288BFF36F8FBD
:101D90000121044AC2F8401583F31188BFF36F8F05
:101DA000002070470090035020B1034B800143F0A6
:101DB00001031847704700BFA089000002F0E8BC8B
:101DC00070B5114B0D461C68DCB1104B196800232F
:101DD0008B4202DB6FF0010070BD224612F8106BDF
:101DE000864202D014460133F2E7E06810B96FF082
:101DF0001200F1E706F00AFC0028F8D000202C6061
:101E0000EAE76FF00C00E7E70C000020C089000053
:101E100070B588B005460C46C0B269461646FFF755
:101E2000CFFF00281BDB0098C8B1436822680293EB
:101E300083680195CDE903360023CDE90623059398
:101E4000C56804F025F86DB12846084901AA04F0D8
:101E5000C4FC079808B9059B236008B070BD6FF0FB
:101E60001500FAE76FF01200F7E700BF2B5F0000E4
:101E7000014803F019BB00BF948A0000F7B5254E56
:101E8000306883685B6C03B19847306883685B6B2C
:101E9000002B32D1204C214D306883689B69002B88
:101EA0002ED001220DF107019847012828D123687F
:101EB00043B92B6833B369681A688B422A6000D132
:101EC0006A602360164A9DF807001188B1F5007F0B
:101ED00004D223684F1C0B44178018720A28DBD1E8
:101EE000002023681188186059600E494D6875B943
:101EF000C1E9003310802060CDE798470028C9D1A0
:101F000003B0F0BD4521084803F0B5FFF8E72B60AA
:101F10004B60EFE7981A0020701600208016002012
:101F2000A81B002078160020F093000010B5044B89
:101F3000044618688368E1B25B689847204610BD84
:101F4000981A0020F8B50546164608464FF02003BB
:101F5000EFF3118783F31288BFF36F8F1B490B6870
:101F60004BB11B4C62689A4205D000221A6062682D
:101F700062B9C4E90033174A136853B987F311886B
:101F8000BFF36F8F18460B603360F8BD136063605A
:101F9000F1E7D2F804C01C686345146008BF5460C0
:101FA00087F31188BFF36F8F5C680B60A042D8BFC6
:101FB00000F1FF3403F108012246284604F0CAFA72
:101FC0000023601C2B550123DEE700BF74160020A0
:101FD000801600207816002037B500251B4B1C4AC0
:101FE000C3E900551B4B1C4C1C4803F502711360E0
:101FF000C3F8085219605160206006F007FB10B367
:102000002068836823B19B6C13B12A461449984712
:10201000206883685B6B0BB1984748B12068836880
:102020009B69002BFAD001220DF107019847F4E7D4
:1020300000220C4B20681A8083689B6A03B1984782
:10204000002003B030BD4FF0FF30FAE778160020D3
:102050008016002088160020981A0020E0860000D4
:102060007D1E0000A81B002040F6061300202DE96D
:10207000F043D9B0ADF80830DFF8E8903A4BD9F822
:1020800000101B68394E0822A3EB06080B78487035
:1020900001330B7098FA98F34B808B8802275BBA58
:1020A0008B8003F0D3FE42463146ADF80C0003F0BE
:1020B000CDFE2F4D40BA2B681FFA88F4ADF80C0006
:1020C000022102A85B68984704F10A035BBA0DF18C
:1020D0000E01022205A8ADF80E3004F03BFAD9F843
:1020E000001008220DF11600ADF80E7004F032FA5F
:1020F000BDF80E0005AB083080B242463146ADF85F
:102100000E00184404F026FABDF80E303A46E018E6
:1021100080B205ABADF80E0003A9184404F01AFA1A
:10212000BDF80E3004AA3B449BB2ADF80E300093CC
:10213000BD2105AB28A8FFF7ABF904992B68ADF8D2
:102140000E1028A85B6889B298472B6801215B684C
:10215000084898474921084803F08DFE59B0BDE86A
:10216000F08300BFE01A0020B01A0020AA3400203B
:10217000E41A0020E19B00002E940000F0B5064612
:10218000B3680C469A42104685B01DD291421DDCC0
:1021900002A9FEF7E7F9B8B9DDE902531D446B1E49
:1021A000CDE90030224649210B48E3172F1B03F0ED
:1021B00062FE3A462146304603F095FE024640B1A3
:1021C0004521064803F057FE6FF01504204605B080
:1021D000F0BD2C46FAE700BF36940000559400008D
:1021E000F0B50C68164F85B002380D46C4F5806115
:1021F0000090144B381903AA0131FFF7C7F90446C0
:10220000D0B92B68039A1344022B2B6011D93E8856
:10221000023B76BAB6B29E420BD13246B91C03F0ED
:1022200015FE30B9022E04D92B689A1E2A60FC5480
:102230000124204605B0F0BD4FF0FF34F9E700BFA0
:102240002B3500202E39002007B5CDE90001694665
:10225000024804F090F803B05DF804FBB01A0020C7
:1022600038B505460A4C0A21204604F096F80221AA
:102270000848FFF7E9FF2946204604F06CF820469D
:102280000A2104F0A8F8BDE83840FFF7EDBE00BF12
:10229000B01A002077940000002307B5054A009388
:1022A000022102F18003044804F097F803B05DF8BE
:1022B00004FB00BFAA340020B01A00202DE9F0472B
:1022C00007290446A8B040F29480037813F0FD0675
:1022D00040F08F804388A1F108055BBA9BB2AB4206
:1022E000C0F08780A64B186083885BBA8380FFF7B5
:1022F000D3FFA088012840F0C181E7793FB1012FC9
:102300007CD0082028B0BDE8F047FFF7A9BF014600
:102310009C4804F042F806219B48FFF795FF0521F1
:10232000984804F02BF83C46DFF86082984FDFF8BD
:1023300064922146002003F02FFA07A9C0B2FFF7EC
:102340003FFD0546002849D1202301460DEB03023D
:10235000079803F09EFD089B3E6843450DD140233E
:10236000019318AB009329462846CDE90355079BF6
:10237000029508AAFEF70EF90646079803F088FDB5
:10238000D9F80030B34229D114217E4804F005F871
:1023900004218148FFF758FF21467A4803F0DFFF08
:1023A00007217E48FFF750FF0E9B40210293BDF8A6
:1023B00036307B4A01939DF8353018A800939DF87C
:1023C000343000F055FE18A804F096F8014618A81D
:1023D000FFF73AFF14216B4803F0FDFF64B10521BC
:1023E000684803F0E9FF0121664803F0F4FFFFF7B6
:1023F0003BFE28B0BDE8F08701249AE7294607ABE9
:1024000008AA04F10800069600F030FA28B3032465
:1024100022464921634803F02EFD0A21594803F062
:10242000BCFF02216048FFF70FFF2146554803F02B
:1024300092FF44B903215D48FFF706FF5C4B51480A
:10244000196803F08CFF0A214E4803F0C4FFFFF720
:102450000BFE069803F01CFDCBE7079B9D42D6D1EF
:102460004FF0FF390146C84605460746179C08AAA3
:10247000A14222D1B8F1FF3FC9D0002FC7D000211F
:1024800003F08AF906A9C0B2FFF79AFC04460028B7
:10249000BDD1474EB8F1000F66D106983460D0F830
:1024A000088003F032FA4349FEF75CF8C8B14521D1
:1024B000414803F0E0FC0124AAE7137A032B04D877
:1024C000DFE803F00206090C106801310C32CFE797
:1024D000D2E90075F9E7D2F80090F6E7D2F800806B
:1024E000F3E7C84593D3354B1C60354BC3F80090D8
:1024F0003268DFF8C880013AD8F8001006982A44FC
:10250000FFF73CFE0028C8F8000080DB069803F0C7
:10251000FEFCB5FBF0F303FB10503268C1B2DFF8EC
:10252000A090A5EB010808EB0203D9F8005019446C
:10253000A94238BF00204921C5B2224803F09BFCC4
:10254000069803F0E4FC012805D9069803F0DFFCA7
:10255000013807426FD143463A463168069803F086
:10256000ADFC002855D052E7336843457FF450AFA7
:10257000134A05EB080312689342B9D947E700BF35
:10258000E01A0020B01A00207A9400003DB8F396BB
:1025900000000020080200208194000086940000C2
:1025A0008E940000BD94000077940000CB9400004E
:1025B000AC1A0020A41A0020A98E0000A01A002046
:1025C0009C1A00209D940000C245069888BF5FFABF
:1025D00088FA03F0A3FC4022014618A803F0C5FFC7
:1025E0005246394618A803F0B5FF5346316806989D
:1025F00018AA03F063FC00287FF409AF336857443E
:1026000053443360A8EB0A08069803F080FC804529
:10261000DAD29DB93368D9F800202B444344934261
:1026200033607FF4F5AE204B06981A681146FFF729
:10263000A5FDC40FECE64FF0400AE5E7069803F06D
:102640006DFC0822014618A803F08FFF2A4607EB0D
:10265000080118A803F07EFFDDF818A03168504685
:1026600008EB010703F053FC3946034618AA50460D
:1026700003F024FC00287FF4CAAECBE700287FF4E7
:1026800040AEE379012B3FF43DAE052B03D0002B88
:102690007FF437AEADE6FFF7E3FD044805F0CBFF6E
:1026A0000120FFF759FB00BFA41A002090D00300BF
:1026B00001232DE9F34100240646DFF8A080284DD0
:1026C00088F80030274B284F0094186098F80030A5
:1026D00013B902B0BDE8F08100F070F9234BC4F5E6
:1026E0008061C3F80056C3F80456C3F80856C3F80F
:1026F0000C56C3F81056C3F81456C3F81856C3F84E
:102700001C56336801AA0131381998470028019BEB
:1027100001DC002BDAD004442BB940F201439C4287
:10272000D4D10024D2E73B78062B09D17B78092B42
:102730000BD1002300936946A01EFFF751FD04E072
:10274000042B02D17B78142BF5D00128E9D1009914
:1027500007480239FFF7B2FDE3E700BF2A35002042
:102760003546526EE41A00202C39002000800150BA
:102770002D35002073B504460D4603F081FE002878
:1027800068D0354B6946009305232046019303F03A
:102790004DFD60B12946204603F029FD38B10023E4
:1027A0002B72204603F073FE012002B070BD20465C
:1027B00003F069FE78B1294B694600930423204653
:1027C000019303F033FD30B12946204603F02BFD81
:1027D00008B10123E4E7204603F055FE78B1204B11
:1027E0006946009303232046019303F01FFD30B197
:1027F0002946204603F0FBFC08B10223D0E720461F
:1028000003F041FE78B10326164B6946204600933B
:10281000019603F00BFD30B12946204603F0E7FC9A
:1028200008B12E72BDE7204603F02DFE78B10E4BA5
:102830006946009303232046019303F0F7FC30B16F
:102840002946204603F0EFFC08B10423A8E7204600
:1028500003F01DFE0020A8E70F910000CF940000B8
:10286000D4940000CB940000D89400002DE9F043EC
:102870004FF001099DB004AC07460E4690461D4638
:1028800002460B4620460421CDF8009003F003FEDB
:10289000204603F0CEFC70B10C230521CDE9018365
:1028A0004846114B009408F13C0203F0E2FC60B989
:1028B000204603F0D9FC0022099BD868DA609042D8
:1028C00008BF1F201DB0BDE8F083204603F0CAFCFE
:1028D0000028F0D00DB90020F4E7049BDB1BB342C5
:1028E00094BF2B602E60F6E77527000002464B1E52
:1028F0000846D15C51B102280FD9084B034401208E
:1029000013F8023C9840C0B270472BB11846013B07
:10291000D15C0029F9D0EEE718467047DC9400003E
:10292000F8B505460F46104619461646FFF7DEFF76
:10293000012804462A68E9681CD13378172B04D98A
:10294000931C99421AD3002325E0501C814215D3D1
:1029500000248A4212D2511C03F01F03296043EA6B
:10296000471111703444B44218D1AB6801200133CF
:10297000AB6007E0431C1344994204D208220020B4
:102980006B69DA60F8BD08B93378E2E7831E062B7D
:10299000D9D80648C35C1833DBB2DAE72B685A1C77
:1029A0002A6014F8012D1A70DDE700BFDC940000E6
:1029B000014910220A60704710ED00E072B64040F5
:1029C00080F31188BFF36F8FBFF34F8F30BF62B6B4
:1029D000BFF36F8F704700BF72B6494081F3118813
:1029E000BFF34F8F20BF80F3118862B6704700BFDE
:1029F00037B505460C46C9B18B6810480093D1E93C
:102A00000023452103F037FA636945210093D4E997
:102A100003230B4803F02FFA4521E269094803F02C
:102A20002AFA4521A269084803F025FA21462846DA
:102A300003B0BDE8304002F071BB00BFE39400007A
:102A4000179500004B9500005F95000040B20028EC
:102A500007DB01234109034A00F01F00834042F8CD
:102A60002130704700E100E0054B420953F8222075
:102A7000012300F01F0003FA00F01040704700BF70
:102A800000E100E040B2002801F10101ACBF00F11B
:102A90006040064B4FEA4111C9B2ABBF00F561403F
:102AA00000F00F0080F800131954704714ED00E097
:102AB00030BFFFF7FDBF00BF0B4A08B50B4B22F03C
:102AC0007F029A60BFF34F8FBFF36F8FD3F88820D8
:102AD00022F47002C3F8882002F098FB02F0DAFBBF
:102AE00000F040FA02F09EFB0000000000ED00E064
:102AF0001EF0040F0CBFEFF30880EFF3098081692B
:102B000011F8021C0229FFD001B503F0E6FC01BD5B
:102B10000446084611461A46002383F30B880A4BE5
:102B20002025A3F5205686F30B8883F3098863B626
:102B30004FF0000383F31188BFF36F8FA04785F335
:102B40001188BFF36F8FFEE7786D002001B5EFF3BA
:102B50000580A0F110004FEAC0000449014409C9F2
:102B60009847BDE80140024908470000108700006F
:102B7000752B0000704700BF38B5214C4521214816
:102B800003F079F9A36A9D0103D545211E4803F09E
:102B900072F9A36ADC0103D545211C4803F06BF9E7
:102BA000174DAC6A14F4801404D04521184803F082
:102BB00062F90224AB6A180303D54521154803F0D6
:102BC0005AF90F4DAB6A590303D54521124803F05A
:102BD00052F9AB6A9A0303D54521104803F04BF92B
:102BE000074DAB6ADB0303D545210D4803F043F9DC
:102BF000AB6A20466FEA03436FEA1343AB6238BD0A
:102C000000ED00E092950000AF950000C795000030
:102C1000E6950000159600003896000062960000C8
:102C20008196000070B5234C06460D46224845218A
:102C300003F021F9A36AD90403D545211F4803F005
:102C40001AF9A36A1A0503D545211D4803F013F9A3
:102C5000184CA36A9B0510D51A48452103F00BF9BF
:102C6000A26BA36A180408D54521174803F003F99D
:102C70001EB1A36A23F40043A3620E4CA36A590554
:102C800003D54521114803F0F6F8A36ADA050BD500
:102C900045210F4803F0EFF80020064A936A43F4F9
:102CA0007F439362287070BDA36A9B04F4D54521CD
:102CB0000848EFE700ED00E0B1960000CC96000078
:102CC000E2960000FA960000189700003297000084
:102CD000529700006F97000070B5264C06460D46CF
:102CE0002548452103F0C7F8A36AD80603D5452136
:102CF000224803F0C0F8A36A190703D545212048EC
:102D000003F0B9F81B4CA36A9A0710D545211D485A
:102D100003F0B1F8626BA36A1B0608D545211A4877
:102D200003F0A9F81EB1A36A23F08003A362114C3B
:102D3000A36ADE0703D54521144803F09CF8A36A73
:102D4000980603D54521124803F095F80020094B59
:102D50009A6AD10658BF9A6A9A6A920642BF5A6A1C
:102D600022F400525A629A6A42F0FF029A62287074
:102D700070BD00BF00ED00E0A3970000BE9700000B
:102D8000E2960000F6970000139800002E980000CD
:102D90006F9700002DE9F0415C4B05465F68002607
:102DA0008AB0C7F3080486F31188BFF36F8F02F06F
:102DB0007F43B3F17F4F07D102F00C03082B14D1EE
:102DC0004521534803F057F8002635464FF00008D8
:102DD000E31E8DF80780092B00F28680DFE803F000
:102DE0000A797D7584848484848110074CBF0D46E4
:102DF0000126EBE745214748444C03F03CF88DF8A9
:102E00000780E36A9A0705D54521434803F033F864
:102E1000002432E0E36A002B02DA45213F48F5E75F
:102E2000E36A5B00F4D545213D4803F024F863696B
:102E3000AA6943F480736361BFF34F8FBFF36F8F51
:102E4000636932F8022C23F480736361BFF34F8F00
:102E5000BFF36F8F4DF602739A4208D0A36ADBB2BC
:102E60002BB301200DF10701FFF736FF2FE04521BD
:102E70002A682C4802F0FFFF2C689DF807309BB9A8
:102E80002022294602A803F065FB099B002E38D0BA
:102E9000C3F3080222B96FEA53236FEA432309936D
:102EA000204602A9FFF7A4FD0AB0BDE8F081A36A9D
:102EB00013F47F4F05D001200DF10701FFF7B2FE9B
:102EC00005E0A36AB3F5803FA2D3FFF755FE0446A1
:102ED000D3E700200DF10701C6E700200DF107013F
:102EE000ECE74521104891E7104917F4F87F104AA4
:102EF000104808BF0A46A4F11003452102F0BBFFA9
:102F000086E723F4FF7323F00103C8E700ED00E038
:102F100080980000B0980000CC980000F298000063
:102F200005990000299900004A9900005298000074
:102F30006798000073990000044B5A6942F0100230
:102F40005A615A6942F480625A61704700ED00E0AC
:102F5000EFF30880EFF3098101B57246FFF71AFF1E
:102F600001BD00BF002320210348C2180133412BBB
:102F700082F80013F9D1704700E100E0002080F3EF
:102F80001488BFF36F8F002080F30A8880F30B88CA
:102F9000FEF714FF00200E490860BFF34F8F0D4865
:102FA00080F3088800F03EF8202080F311880A485A
:102FB0004FF40061401880F30988EFF31480022178
:102FC000084380F31488BFF36F8FFFF775FD00008F
:102FD00094ED00E0786D0020783D0020BFF34F8F26
:102FE0000549064BCA6802F4E0621343CB60BFF3A5
:102FF0004F8F00BFFDE700BF00ED00E00400FA05C1
:10300000002318460649D1F89020C2F307229342C4
:1030100000DB7047C1F89830C1F8A0000133F6E733
:1030200000ED00E010B572B6002484F31388FFF7BA
:10303000E7FF23464FF0FF300C4A03F12001013334
:10304000102B42F82100F8D100234FF0FF30074A3F
:1030500003F160010133102B42F82100F8D162B670
:10306000BFF34F8FBFF36F8F10BD00BF00E100E0D3
:103070000CB410B586B009B90DF10B000024CDE9F0
:10308000040109AB089A009404A905480393FEF7CC
:103090003FFC049B1C7006B0BDE8104002B07047B6
:1030A0007D650000084B70B5C31A0D4607499B109B
:1030B000044659434022064803F089FA2B4601464C
:1030C0002046BDE870401847FC1A0020B76DDBB6FB
:1030D00098860000402373B50B4C0093041B0B46ED
:1030E0000D460A49A41061430646094A094803F0FF
:1030F0009AFA011E05DA30462B4602B0BDE8704050
:10310000184702B070BD00BFFC1A0020B76DDBB6D7
:10311000976600009886000010B54FF02003EFF38B
:10312000118483F31288BFF36F8F074A136823F06B
:103130000201DB07116002D4012005F05BFA84F381
:103140001188BFF36F8F10BD4C1B002070B500229B
:10315000012104460520FFF795FC0F4801F012FC01
:103160000E4B984215D105F0F7F926690C49304607
:1031700002F0E3FD00280BDB0125356424690849D2
:1031800004F11C0002F0D9FD002801DB0020E564F9
:1031900070BD6FF00400FBE7D93100000000AD0BFB
:1031A0009C8A000001460C23002270B54B4308485E
:1031B000C4184033D4E90E561844A26303F0F4F95E
:1031C0002DB132462B46BDE870400248184770BD0D
:1031D000FC1A00209886000010B1012804D0704726
:1031E000034B1B6C5B0701D1FFF7DCBF704700BFCF
:1031F000FC1A002008B54FF02003EFF3118183F390
:103200001288BFF36F8F124A136843F002001060F8
:10321000DA0708D481F31188BFF36F8FBDE8084047
:10322000012005F0A7B94FF05023D3F80C24D3F8B0
:103230000C34D307EED5074803F0B6F981F31188B3
:10324000BFF36F8FBDE808400020FFF7ABBF00BFA2
:103250004C1B00203C1B00202DE9F84301220746AF
:103260003449D1E8EF3FC1E8E02F0028F9D133B964
:10327000314932484B60CB608A6002F071FD7B1EA1
:10328000012B2DD8012F07D14FF05023D3F81C3438
:1032900003F00303022B23D005F0C7F9054608BB52
:1032A000274B1B78F3B14FF0502302220646C3F898
:1032B00008234FF050244FF00008DFF88890D4F82E
:1032C0001834D4F81824D20316D503F00303022BC4
:1032D00001D0012F10D13DB386F31188BFF36F8F5A
:1032E000BDE8F8834FF02003EFF3118683F31288D3
:1032F000BFF36F8F0125DCE73046FFF76DFBD4F895
:103300001835DBB2012BDAD1D4F80421002AD6D04B
:10331000C4F80481D4F804210222C4F8182520221C
:10332000C9F88021A360CAE74FF050230222C3F8F6
:103330000423D5E7F81A0020E81A0020181B002003
:10334000713D002000E100E030B5406801F01F044D
:10335000057BB2F5001F85B044EA451405D120462F
:1033600001F0A4FD002005B030BD0025B2F5800FAE
:10337000CDE9025514D1B3F1007F0CBF042305231E
:103380008DF8083000232046194602AA01F0C4FB3C
:103390001C4B984233D10121204601F043FDE1E767
:1033A000B3F1C06F20D0B3F1007F14BF012302231B
:1033B0008DF808308368CB40D907E3D4B2F1A07F01
:1033C000E0D1114A04F01F03803352F82330DB07A9
:1033D000D8D40DF107052946204601F0CFFC0B4B50
:1033E000984203D00395CDE70323E1E7284601F097
:1033F00013FD044B9842F5D06FF00B00B3E76FF06C
:103400001500B0E70000AD0B002584500400AD0BA3
:1034100010B501F0F1FC044668B901F0C5FC084B99
:1034200098420AD12146074801F0A2FC2246052114
:103430000D20FFF727FB002010BD6FF00400FBE715
:103440000000AD0B49340000430970B507D10B4BA8
:10345000596821B101250C68094E854001B970BD3C
:103460008A682A4002D030464B6898471CB12368CE
:1034700021461C46F2E72346FAE700BF501B002016
:10348000B08600002DE9FF41476801F01F053B7B36
:10349000144645EA43150E4628460DF1030101F096
:1034A0006DFC14F4403F80460BD1284601F026FD08
:1034B0003C4B984503D19DF8030001F0A7FC002088
:1034C0000CE000232846194602AACDE9023301F098
:1034D00023FB344B984204D06FF0150004B0BDE8D4
:1034E000F081804503D19DF8030001F08FFCA30318
:1034F00049D540F206332340B3F5837F19D00CD869
:10350000062B17D004D8ABB1022BE5D1042311E070
:10351000B3F5807FE0D101230CE040F20222934218
:1035200026D0B3F5407F25D0B3F5007FD4D1022358
:1035300000E007238DF8043084F48033C3F30043A4
:10354000E0068DF805304CBF0323C4F3401321037C
:103550008DF8063010D501237A68B34093600022BD
:10356000284601A901F084FB0E4B9842A7D0B3E78F
:103570000523DFE70323DDE7620341BF01237A6808
:10358000B340D360EBE7E3064FF000034CBF0324E6
:10359000C4F340141A46284601A98DF8044001F0EE
:1035A000BBFAE1E70000AD0B024B0B600123136097
:1035B000704700BF5C1B002000487047248B000050
:1035C00010B505F01FF8034C206005F018F8606096
:1035D000002010BD5C1B0020F8B50E46144605F017
:1035E0000EF821460546304603F0B1F8374600B3E1
:1035F000B6FBF5F305FB136323B9B4FBF5F305FB49
:10360000134343B12346324645210C4802F033FCB4
:103610006FF0150002E0A54201D90020F8BD04F0CA
:10362000EEFF0546384601F04BFD641B2F44F9D1EF
:10363000F3E72346324645210148E7E7BC990000FD
:10364000E0990000F8B50E461946304617461D466B
:1036500003F07DF840B92B4632464521114802F06F
:103660000AFC6FF01500F8BD46EA050414F00304E7
:1036700004D02B46324645210B48F0E74DB12B19BB
:10368000032BA6EB040006D8084AD2F80034DB0767
:10369000FBD50020E7E73B1B196801F02FFD043C38
:1036A000EDE700BFE0990000029A0000009003508F
:1036B00070B50D461946284616461C4603F047F8D5
:1036C00040B9084823462A46452102F0D4FB6FF052
:1036D000150070BD24B122462946304602F03AFF5B
:1036E0000020F6E7E0990000F8B504460D460769AA
:1036F00004F09BFF90B91F4B1B787BB16426606878
:1037000003F066F9E0B9012004F0CAFE013EF6D1EB
:10371000F4E781F31188BFF36F8FEFE74FF02003D9
:10372000EFF3118183F31288BFF36F8F60680E4649
:1037300003F04EF990B981F31188BFF36F8FEDE775
:103740004FF02003EFF3118183F31288BFF36F8FE3
:1037500060680E4603F03CF90028DAD07B6901224C
:103760001D702046796903F073F886F31188BFF362
:103770006F8FF8BD713D0020F0B54B79012B26D03D
:10378000032B21D110258B79032B1DD1CE790EB1BE
:10379000012E19D10A7912B1022A15D10E220B6815
:1037A0004468B3F5164F276867D02DD8B3F5165F78
:1037B00066D016D8B3F5966F64D00AD8B3F5967F65
:1037C00063D0B3F5167F63D06FF0850054E0002519
:1037D000D9E7B3F5166F5ED0B3F5965FF4D1384BE9
:1037E0003CE0B3F5E14F59D007D8B3F5615F57D04E
:1037F000B3F5964FE8D1334B30E047F61224A3429D
:10380000E2D14FF4000329E0B3F5613F4AD013D869
:10381000B3F5963F49D009D84DF6C024A34246D00F
:10382000B3F5614FD0D14FF46B0317E0B3F5E13F2F
:10383000CAD14FF0EB7311E0B3F5612F3AD008D83D
:10384000214CA34239D0B3F5E12FBDD14FF0E8634D
:1038500004E01E4CA342B7D14FF080530469C7F86F
:103860002435436835431B682A43C3F86C25231D60
:1038700003C983E803000020F0BD4FF41D03EDE70A
:10388000134BEBE74FF49E23E8E74FF4A033E5E753
:103890004FF41C33E2E74FF41D23DFE70D4BDDE768
:1038A0000D4BDBE74FF06C73D8E70C4BD6E74FF4CA
:1038B0006503D3E74FF07063D0E74FF08063CDE747
:1038C00000B0130000A04E0090D0030040420F0053
:1038D0000050270000C0750000F03A0000903A0147
:1038E0002DE9F7430021476806693C688046C4F823
:1038F00000153060D7F80C9001AA484603F03AF959
:10390000051E1EDB019BD9F800201979186800F00C
:1039100051FA051E15DB4046311DFFF72DFF054608
:1039200078B97B6899071DD506F11C0001F06EF887
:10393000204B984209D045211F4802F09CFA6FF0B5
:103940000405284603B0BDE8F083337F43F000430D
:10395000C4F8A031C4F88C300123327F9340174A59
:10396000C2F804350823C4F800353B7A53B9C4F8CB
:103970001031D4F81031B369C4F834350123C4F8D8
:10398000383523607B689A075CBF4FF48073C4F8B6
:1039900004337B68DB0644BF4FF48003C4F8043370
:1039A0007369C4F844350023C4F848350123A36083
:1039B000E360C6E70000AD0B469A000000700150BE
:1039C0000123834070B5DC430B4AD2E8EF1F01EAC4
:1039D0000405C2E8E65F002EF7D14FF48032824042
:1039E0000648C0F80823BFF35F8FBFF36F8F0B4209
:1039F00014BF0120002070BD681B00200050015042
:103A000070B40E4922F07F46D1E90034D01AC318B1
:103A100044F10004C1E90034A6F50013B3F5400FEA
:103A200009D2074B1B681A0A1B069C19054B42F169
:103A30000005C3E9004570BC01F08CBC700100209A
:103A40006C1B002078010020D9B101230D4A83406E
:103A5000D2E8EFCF4CEA030CC2E8E1CF0029F7D15E
:103A60004FF48033084A8340C2F80433074BD3E84D
:103A7000AF3FC340DB0742BF4FF40012044BC3F813
:103A800000217047681B002000500150641B00207B
:103A900000E100E00D4B1868010A0006BFF35F8FDC
:103AA0000B4BD3F80435181841F10001B3F5801F12
:103AB0000AD2084BD3E90023904271EB030303D2EF
:103AC00010F1807041F10001704700BF6C1B0020B5
:103AD00000500150780100202DE9F74F16461F468F
:103AE0000446FFF76DFF0090FFF7D4FFB04271EB83
:103AF000070350D2384B301A67EB0101984271F13D
:103B0000000165D2354B03EB0413D3E902239F4236
:103B100008BF964249D04FF48039314909FA04F977
:103B2000204626F07F4BC1F8489303F017F84FF07A
:103B3000030A584604F15005AD00ADB205F1502519
:103B400004F5A873274A05F580350193DDF804C014
:103B500020F07F4341F82C30C1F84493D1F804851C
:103B6000A0EB0800033820F07F4090421DD9286860
:103B700060B1D1F80485A8EB0B0020F07F40B0F5D0
:103B8000000F12D9204602F0E9FF164A0AEB08009E
:103B90000AF1010ADAE70123134AA340D2E8EF0F42
:103BA0001843C2E8E10F0029F8D100250B490C9811
:103BB000230101EB0412C850C2E902670D9B536058
:103BC00020460099FFF740FF284603B0BDE8F08F7C
:103BD0006FF01505F4E700BF0100800060010020D0
:103BE00000500150FDFF7F00641B002073B50024CE
:103BF0004FF0FF304FF0FF31164D174BC5F8084519
:103C0000C3E902014FF4803302264FF40012C5F8D5
:103C10000433124B0121C5F804631520C3F8802139
:103C20002246FEF72FFF1520FEF710FF01230C4A56
:103C3000AB602B6013600B4B0B4A009320460023B4
:103C40000194FFF749FF3046FFF706FB204602B01C
:103C500070BD00BF005001506001002000E100E095
:103C6000681B0020013A0000FFFF7F002DE9F743A9
:103C70002E4BD3F8042390070BD5D3F8042142B17F
:103C80000022C3F804212A4AD3F80431136801330F
:103C90001360264AD2F80433D90327D5254BD3E83D
:103CA000EF1F21F00100C3E8E40F002CF7D1CB0790
:103CB00002D4D2F84031CBB100251C4CC4F840519D
:103CC000D4F84031FFF7E6FE4FF02003EFF3118206
:103CD00083F31288BFF36F8F174BD3E90267B042AB
:103CE000B94106D282F31188BFF36F8F03B0BDE8EC
:103CF000F0834FF0FF38D3E900104FF0FF391D601B
:103D0000C3E902894FF48033C4F84833C4F8405102
:103D1000D4F8403182F31188BFF36F8F0029E5D0CA
:103D2000009032463B4628468847DFE70050015066
:103D30006C1B0020641B002060010020431C13B595
:103D400021D0012821DD124A124B9042D4BF0446F3
:103D50001C46FFF79FFE104B0E49D3E90023801A43
:103D6000B0F5000F28BF002404448C4228BF0C4645
:103D700000200A49A2180190009143F10003FFF7C7
:103D8000ABFE02B010BD034CE3E70124E1E700BF46
:103D9000FEFF7F00FFFF7F0070010020013A00005E
:103DA00008B5FFF777FE024B1B68C01A08BD00BFBD
:103DB000700100202DE9F04101273F4E00EB810109
:103DC000814202D10020BDE8F081056805F07F0343
:103DD000C5F343247F2B4FEA154508BF4FF0FF334F
:103DE000192D66D8DFE805F00D161B1E212D1E6566
:103DF0006565653151656565656565656565545CD5
:103E00005F62C2F80C3503F01F0507FA05F5B560CF
:103E1000012502E0C2F814350025AC461CE0C2F8CA
:103E20000835F0E7C2F81035F6E70025C2F8083586
:103E300003F01F0C07FA0CFCC6F80CC04FF0010C85
:103E40000AE0C2F80C350125F2E7C2F80835002C6B
:103E5000E2D100250624AC4650F804EB24020EF40F
:103E60000058B8F1000F1CBF4FF0000C0125CEF335
:103E7000C11E44EA8E0403F01F0344EA0C0444EA22
:103E80004504803346F823409AE7C2F80C35DEE754
:103E9000C2F860350568C5F38035002DD3D0B2E790
:103EA000C2F86435F6E7C2F86835F3E7C2F86C3556
:103EB000F0E76FF0850086E7002584500348452130
:103EC00008B501F0D8FF0020FFF788F88E9A0000AF
:103ED00030B5816885B0103921F00704054602F03D
:103EE0001DF810220146684602F03FFB102268468A
:103EF000064902F02FFB10236A462146284601F0AE
:103F0000DDFF003818BF012005B030BD948D0000E2
:103F100030B50D46816887B0102302AA10390446D7
:103F200001F0B7FF002802DA012007B030BD1022EF
:103F3000204602A902F050FE00283AD110221E4964
:103F400002A802F0E0FA00280CBF012302232B7024
:103F5000204602F02DFE012301460DF10702204606
:103F600001F097FF0028DFDB9DF80730204603F0C3
:103F70000F021B096A702B7101220DF1070102F07B
:103F80002BFE10B96B78042B03D901236B7000232F
:103F90002B71A2682046183A22F00702083AA91CA1
:103FA00002F02DFE0028BFD12046E91C02F080FE61
:103FB000BBE70323CBE700BF948D00007FB5054628
:103FC0006946022002F07AFE044610B1FF2004B0D8
:103FD00070BD082002A902F071FE012836D12A46E0
:103FE0004921284801F047FF274B8DF80C400293E8
:103FF00000229DF800509DF80860244C2946207846
:1040000002F0DCFD48B33146607802F0D7FD20B302
:10401000A378042B03D09DF8031099421DD1E378B7
:10402000042B03D09DF80B10994216D12379042B51
:104030000FD16379022B1BD1154A1648492101F093
:104040001AFF6079831E022BC1D9BFE70028CFD0A9
:10405000BCE79DF802109942EBD00132032A04F12B
:104060000604CBD10C48492101F005FF0120AEE741
:10407000032B05D0094A0A49042B08BF0A46DCE78E
:10408000084ADAE7D39A000003010303469B0000C5
:10409000B59A00001E9B0000319B0000BA9A0000F8
:1040A000CC9A0000B09A000001680E4A0346914283
:1040B00015D1C169A2F11022A2F1EF1291420ED1E5
:1040C0008268012A0BD8C26812B101698A4206D0FF
:1040D000586928B19B691B1A584258417047012002
:1040E000704700BF55AA00FF70B50D4B9E68A6B182
:1040F0003046FFF7D9FF044678B9F3686BB93569E4
:104100000DB9204670BD2846FFF7CEFF28B9EB68F1
:10411000B34202D12E462D69F2E70124F1E700BF38
:10412000701B00202DE9F8433F4F3C68D4B1BC68B8
:10413000C4B100284AD0002948D001FB00F5B5FBE6
:10414000F0F0884242D1281D40D8A9070DD025F0B3
:1041500003060436FC6803E06368B34238D2A469FE
:10416000002CF9D12046BDE8F8832E46F2E7FB602B
:1041700041E006F120016318203A5A600022C3E9A9
:1041800002242A4822691A6160502949D96102B182
:10419000D36062695A61A1699961AAB193619A6910
:1041A00002B153614FF0010923610023C4E90169A1
:1041B000C4E905333B69DB072ED5FFF795FF58B3FC
:1041C0001C4B48461B6826E0FB60E8E70024C9E773
:1041D000A3681BB1174B01201B689847626804F164
:1041E0002008921B232AC4D80123A360D4E9052305
:1041F000002ABCD09361A3690BB162695A610023A4
:10420000C4E905333B69DA0706D5FFF76DFF18B13E
:104210000120084B1B6898472A4600214046444627
:1042200002F0A3F99EE700BF701B002055AA00FF13
:10423000669911EE7800002070B50546002800F060
:104240008880444E3368002B00F08380B268002AD7
:104250007FD0834203D872681344984203D33E4B05
:1042600001201B689847A5F120042046FFF71CFF9A
:1042700018B1394B01201B68984755F8183C012BA1
:1042800003D0354B01201B689847002345F8183CA4
:1042900055F8143C3BB39A682ABB55F81C2C02F124
:1042A00020015A680A445A6055E905321A6155F8E6
:1042B000145C2B6903B1DD6020220021204602F04E
:1042C00054F9286910B18368002B2ED033699B07FD
:1042D0003FD5FFF709FF00283BD0BDE870401E4BDB
:1042E00001201B68184755F8100C00282AD0836855
:1042F00043BB4268636813442033636003692361EE
:10430000D4E905239AB9CBB9436963618269A26193
:10431000B3B19C61A36903B15C61236903B1DC6043
:104320002022002102F021F9D0E72C46E1E7936139
:10433000A369002BE8D062695A61E5E7F360F7E70B
:10434000F460E7E7F36845F8083C03B15C61F460AA
:10435000BCE770BD701B00207800002038B50C460B
:10436000142200210546134802F0FFF812491348B1
:1043700000F034F8232C1CD915F003031FBF043CB4
:10438000E418C3F10403ED1822460021284602F088
:10439000ECF8084B0A49C3E90054203C9D606C606E
:1043A0009A6811609A68A1F11021A1F1EF11D16111
:1043B000DA6038BD701B0020394200002541000042
:1043C00055AA00FF014B1B68184700BF8000002062
:1043D000014B1B68184700BF7C000020024B18608F
:1043E000024B002019607047800000207C000020F4
:1043F000F8B500F108064768044630460D4603F05C
:1044000004F887424BD16368B3F5807F47D8002119
:10441000304603F065F9002841DD0021304602F006
:10442000C6FFE0B345B9294604F1140003F058F97A
:10443000002834DD0020F8BD04F12C0500212846B9
:1044400003F04EF900282ADD0021284602F0AFFFD4
:1044500028B304F138050021284603F041F900286B
:104460001DDD0021284602F0A2FFC0B1002104F1A9
:10447000140003F035F9002811DD002104F1440097
:1044800003F02EF900280ADD002104F1500003F0AA
:1044900027F9002803DD002104F15C00C6E701488C
:1044A000C9E700BF80BFFFFF70B500210446FFF7DA
:1044B0009FFF054610B10E4D284670BD04F1080659
:1044C000304602F084FF7F28F5D91434294620466F
:1044D00002F06DFF0028EED0204602F078FF0128A0
:1044E000E9D93146204603F0BAF80028E4DBE2E7D8
:1044F00000BEFFFFF0B50C4687B00021054616460A
:10450000FFF776FF002839D103A802F0A6FE214666
:104510006A6803A802F07FFF044618B103A802F0FE
:10452000A2FE0CE005F10804214603A803F097F869
:10453000002807DB03A802F096FE6FF00304A4F541
:10454000854418E005F1680303A96F6808460093E5
:1045500005F11402234603F0DDFB04460028DDD1FB
:104560003A46314603A802F077FF044603A802F05A
:104570007AFE002CE3D1204607B0F0BD004CFAE7EC
:1045800080BFFFFF234A2DE9F041B1F1000818BFB9
:104590009646214A214918BF944602F1794208BF44
:1045A0008E4602F574021E4902F5016208BF8C4670
:1045B0001C4918BF11461C4A1C4F18BF17461C4AFD
:1045C0001C4E18BF164602F1D14202F5C01202F588
:1045D0001E62194D18BF1546184A0346184C194853
:1045E00018BF1446A2F11162A2F50C22A2F28E228B
:1045F00018BF02460020C3E902ECC3E90000C3E98A
:104600000417C3E90665C3E90842C3F86880BDE83A
:10461000F08100BFD89E05C107D57C3667E6096AE0
:1046200085AE67BB72F36E3C39590EF73AF54FA56C
:10463000310BC0FF7F520E518C68059BA78FF96428
:10464000ABD9831FA44FFABE2DE9F04FD1B00DF5C1
:104650008E7B5A46031D019300F124030393019BB3
:1046600053F8040F42F8040F03989842F8D1DDE99B
:1046700048074FF000094F9B4CAD0293DDE94AE338
:104680000493424B06AA059395E82011B9F10F0F48
:1046900063D84C780B78240444EA0364CB78234332
:1046A0008C7843EA04234FEAF52A8CEA0804059E35
:1046B0008AEAB51A2C408AEA756A84EA0C045444E2
:1046C00056F804AB936054442344029C4FEA703A7A
:1046D000234440EA070405968AEAB00A04EA0E0475
:1046E00000EA07068AEAB05A3443544409F1010942
:1046F000DDF810A0B9F1400F9A4402F104022344FE
:1047000001F10401CDF808C0CDF810E01ED1CDE9CB
:104710000634CDE94E8CCDE94CA5CDE94A7ECDE9F4
:104720004830019A52F8043F01925BF8042F134479
:10473000019A1360039B9342F3D106A84FF494713E
:1047400000F0BAFE002051B0BDE8F08FBE46C4466E
:104750000746A8461846554698E7136852F8384C5D
:104760004FEAF34A8AEA734A8AEA932A52F8143CD7
:1047700052F8346C234452F8344C53444FEAB44456
:1047800084EAF61484EAD60423448CE7E08B000024
:1047900008B54FF47F03D3F83021D3F83431BFF399
:1047A0004F8F092A01BF4FF050230022C3F8142174
:1047B000C3F8182103F063FE28B101224D4BC3F862
:1047C000382AC3F878254FF47F03D3F83021D3F883
:1047D0003431BFF34F8F092A05D1012B1EBF0122AF
:1047E000444BC3F8782503F04AFE18B10E22424B21
:1047F000C3F8E42E4FF47F03D3F83021D3F83431DB
:10480000BFF34F8F092A06D100223A4BC3F80C2779
:104810000122C3F810270022D30003F57F03D3F849
:104820000013BFF34F8F013108D0D3F800130132CA
:10483000D3F80433B2F5807F0B60EDD12F4BDA69EA
:10484000BFF34F8FD10745D5BFF34F8F2C4BD3F814
:104850000024012AFBD1C3F80425D3F80024012A3F
:10486000FBD1264BDA69BFF34F8FD2070AD5DA693D
:1048700022F00102DA61BFF34F8F214AD2F80034EF
:10488000012BFBD11D4A136ABFF34F8F01330CD1AB
:10489000136A23F0FF0343F020031362BFF34F8F2B
:1048A000174AD2F80034012BFBD10022144BC3F875
:1048B0000425D3F80024012AFBD1BFF34F8F1149FF
:1048C000114BCA6802F4E0621343CB60BFF34F8F11
:1048D00000BFFDE71B6ABFF34F8F0133B4D0094A15
:1048E000D2F88C3043F44063C2F88C30074B084A4E
:1048F0001A6008BD0040005000A003500080FF0077
:104900000090035000ED00E00400FA058400002050
:104910000090D00370B501250268B2FA82F3C3F1AA
:104920001F03DBB205FA03F422EA0404D0E8EF6FB8
:10493000964204D1C0E8EC4FBCF1000FF6D1EBD1A8
:1049400001480B7070BD00BF0000AD0B10B50368CF
:10495000CB40DB0710D401238B40026843EA0201FD
:10496000D0E8EF4F944204D1C0E8EC1FBCF1000F37
:10497000F6D1F2D1014810BD0148FCE70000AD0BB3
:104980000400AD0B044B1A7922B9012218601A7188
:104990000248704702487047841B00200000AD0B9E
:1049A0000C00AD0B4FF0502310B5D3F8002152B1DD
:1049B0000020C3F80001D3F800210122C3F8082326
:1049C000114B1B6898474FF05023D3F804218AB14C
:1049D0000022C3F80421D3F80421D3F81824D3F813
:1049E000181402F00302012A4FF0020103D1C3F8A8
:1049F00018159A6010BDC3F80813034B0120BDE8D9
:104A000010401B68184700BF841B00200146014866
:104A1000FFF780BF88000020064A00F01F0002EB6D
:104A20008002D2F8003223F4403343EA0143C2F853
:104A30000032704700258450034B083033F81000D3
:104A4000C0F34010704700BF8C00002070B50D4CC3
:104A500000F1080334F813300546DA050E4607D591
:104A6000C3F3432304EBC302526854F8333098472E
:104A7000A3682BB131462846E268BDE8704018476C
:104A800070BD00BF8C00002010B4124A083032F80C
:104A90001030D9051BD5C3F3432123F4F85322F872
:104AA0001030002002F10E0434F8023F13F4807F2E
:104AB00003D0C3F34323994209D001302028F3D116
:104AC000002342F83130044810BCFFF73FBF10BC50
:104AD000704700BF8C000020E000002038B502467F
:104AE000FFF7AAFF0B4C02F1080560B1002134F872
:104AF00015305B0B9B0003F1A04303F55043C3F853
:104B00001015C3F810151046FFF7BEFF002324F858
:104B1000153038BD8C0000202DE9F34104461D46B8
:104B200009B34E4F00F1080837F81860B30706D5EF
:104B3000FFF782FF18B14A4802B0BDE8F08149484A
:104B400004F01F0300EB8300D0F80032097823F053
:104B50000F0326F0020643EA810346F00106C0F87F
:104B6000003227F818609AB13C4E04F1080736F875
:104B70001710137811F0020F50680CD00028DAD10A
:104B800036F8172022F01C0242EA830326F8173079
:104B9000D5BB3548D0E721F02001C904C90C26F85F
:104BA00017100028ECD0032BC5D8526892F800C02B
:104BB0006246920002F1A04202F5504223B9C2F8C7
:104BC0001035C2F81035DBE7D2F8100541EA4C3158
:104BD00020F00300C2F81005D2F8100541F02001C2
:104BE00020F4473020F44070C2F810052002D2F8BB
:104BF00010E500F4F85040EA034040EA0E00C2F825
:104C0000100526F81710BBE72046D5E90067FFF727
:104C10003BFF002EBDD0114DD5E90023964201D1B6
:104C20009F4218D011480DF10701FFF773FE0E4B9C
:104C3000984281D19DF8072005EBC20308345F60DC
:104C400035F8143045F8326043EA422343F4807368
:104C500025F814309DE70022EEE700BF8C0000200D
:104C60000400AD0B002584500000AD0BE0000020D7
:104C7000F8B5044679B33A4E00F1080736F81750F4
:104C8000AB0704D4FFF7D8FE08B13648F8BD15F0DD
:104C90001C0F4B7822D104F01F00DFF8CCC000F1CC
:104CA000800E5CF82EC091F802E05B002CF4E16C01
:104CB000097843EA8E032CF0070C43EA0C0343EA1D
:104CC0000123294943F00103803045F0030541F8F1
:104CD000203026F8175022B92448D7E7012BDAD123
:104CE000D3E71F4E04F1080736F817008307CCD529
:104CF00092F800C00023614620F02000890001F1F5
:104D0000A041C00401F55041C00CC1F8103526F88F
:104D10001700C1F810355578002DDDD0D1F81035C9
:104D2000927823F4981323F4F853C1F81035D1F88E
:104D300010E5230203F4F8532D0443EA0E0305F4AF
:104D4000403512052B4302F4801240EA4C301343E5
:104D500040F02000C1F8103526F81700BCE700BF6E
:104D60008C0000200400AD0B002584500000AD0B2A
:104D7000014BC3E9020170478C00002008B50246D0
:104D8000FFF75AFE38B1054B083233F812300448A9
:104D90005B0B0B7008BD0348FCE700BF8C000020D4
:104DA0000000AD0B0400AD0B38B50F4C94F8585013
:104DB000BDB94022294604F1100001F0D6FB0D20B8
:104DC000FDF744FE094B0A48C3F87C51D3F87C2117
:104DD0004FF00042C3F80423012384F85830636580
:104DE00038BD0448FCE700BF8C00002000D0005014
:104DF0000000AD0B0500AD0B034B93F858000038D5
:104E000018BF0120704700BF8C00002001460148F8
:104E1000FFF79CBDDC00002001460148FFF77ABD8A
:104E2000DC000020024610B5FFF706FE1C4B02F125
:104E3000080433F81430E0B113F0020419D15B0B0D
:104E40009A0002F1A04000F5514002F1A042046036
:104E500002F550420068D2F8100540F00100C2F897
:104E6000100529B1012202FA03F30E4AC2F80433F5
:104E700010BDC3F38203042B0ED0052B0ED00A4BBA
:104E8000196902F01F03D94001F0010102311046F7
:104E9000BDE81040FFF7C0BD0321F8E70221F6E7A7
:104EA0008C00002000D000500025845008B5024638
:104EB000FFF7C2FDC0B10F4B02F1080133F811300A
:104EC000990711D401225B0B9A400B499B0003F117
:104ED000A043C1F8082303F55043D3F8102522F06E
:104EE0000302C3F8102508BD0021BDE808401046A4
:104EF000FFF792BD8C00002000D0005010B50C4B85
:104F000000F1080233F812300446DB070DD5FFF735
:104F1000CDFF2046FFF7E2FD0222064B04F01F04FE
:104F20008034054843F8242010BD0448FCE700BF46
:104F30008C000020002584500000AD0B0400AD0B58
:104F40002DE9F04F002501222C464D4B4D484E498E
:104F500085B01E6836B1D0F8046316421EBF1C60CF
:104F60001E68154304338B424FEA4202F1D1454F8C
:104F7000D7F87C3193B1454E336A039333624FF0D7
:104F8000010A0DF10C09039870B9C7F87C01D7F834
:104F90007C31336A03933362002BF0D10124002D5E
:104FA00056D105B0BDE8F08F90FAA0FBBBFA8BFBA1
:104FB000374A0BF108034FEADB0C32F813100BF001
:104FC000070419F80C300AFA04F423EA040309F878
:104FD0000C3006EB8B03D3F80042C1F38202C90602
:104FE0009046C4F3014418D5114658460193FFF783
:104FF0002DFD019BE4B2D3F80032C3F301439C4280
:1050000007D100215846FFF707FD21465846FFF714
:1050100003FD0AFA0BF03062B5E7022C0CD1032134
:105020005846FFF7F9FC08F00503012BF1D1414682
:105030005846FFF70BFDECE7022158460192FFF7B7
:10504000EBFC019A032AF2D0032CE2D18A42EDE76D
:1050500095FAA5F3B3FA83F304FA03F29B0003F184
:10506000A04303F55043D3F81005D3F81015C0F34F
:105070000420C1F3014125EA0205FFF7E7FC8EE7B2
:1050800000D1005000D0005020D1005000258450A5
:105090008C0000200022034BC3F88425C3F80425AC
:1050A000704700BF00900350044AD2F80834DB0771
:1050B000FBD50160BFF35F8F704700BF00900350C6
:1050C00008B5C0F30B0383B90222094BC3F884254A
:1050D000C3F804254FF0FF320260D3F80024D20752
:1050E000FBD5FFF7D7FF034808BD0348FCE700BF27
:1050F000009003500000AD0B0A00AD0B012208B573
:10510000054BC3F88425C3F80425FFF7CDFFBDE8A0
:105110000840FFF7BFBF00BF0090035073B50446BF
:105120000D464FF02003EFF3118683F31288BFF38F
:105130006F8F0022042896BF114B124B53F820307A
:10514000009245210246104800F095FE3DB1EB6902
:10515000C3F308031BB145210C4800F08CFE00226C
:105160000B4B45210B4800F086FE29462046FEF7F2
:10517000A5FE86F31188BFF36F8F02B070BD00BF2C
:10518000E08C0000829B0000909B0000BD9B000013
:10519000E39B0000EB9B00000F4B70B553F82040E1
:1051A000013053F82060A64200D870BDD4E9003524
:1051B000284698476DB138B10028B8BF4042FF2853
:1051C000A8BFFF20EB681870EA68537843F001032A
:1051D00053700834E7E700BFF48C0000012208B5E3
:1051E000084B03201A70FFF7D7FF00F00FF90420D7
:1051F000FFF7D2FFFBF70EF9034A137B23F00103FD
:10520000137308BD713D00208001002008B50348DC
:10521000034A0021121A03F004FA08BD60010020BD
:10522000743D002008B50020FFF7B6FF164B03F5CC
:10523000006282F3088883F30A880025E023134C78
:1052400084F82230E57725766576A57684F82050B7
:10525000636A43F4E023636284F82350FDF76CFE35
:10526000FDF7A6FB4FF0FF33A362E36203F0CDF935
:105270000120FFF791FF0220FFF78EFF2B462A4601
:1052800029460348FDF744FC783D002000ED00E08E
:10529000DD51000008B50648064A0749121A03F016
:1052A000C2F9BDE80840054A0549064803F0BBB904
:1052B000000000205A010020849C00000000000033
:1052C000849C000000000020034B1B680BB9FEF714
:1052D00067BD0020704700BF8C1B002010B50E4B2F
:1052E0001C689C4204D1FFF7EFFF6FF0004010BD37
:1052F000FFF7EAFF002CF8D0D4E904321B1A62EB66
:10530000E072B3F1004F72F10001EEDA002AACBF97
:1053100018460020EBE700BFE800002030B570B170
:105320000B4B5B6898420AD0036843B1D3E9042170
:10533000D0E90445121941EB0501C3E90421D0E984
:10534000003213605A600023C0E9003330BD00BF53
:10535000E80000202DE9F84303464FF02002EFF368
:10536000118482F31288BFF36F8F254FDFF894907A
:10537000D9F80000DFF890C048453B604FEAE3757C
:10538000DCE9001E0CD058B1D0E90486434575EB2A
:10539000060217DAB8EB030266EB0506C0E904263D
:1053A00059184EEB0505CCE9001500253D60FFF7C7
:1053B00095FF2946FEF7C2FC84F31188BFF36F8F77
:1053C000BDE8F88318EB01014EEBE8730022CCE94D
:1053D00000130023C0E90423FFF7A0FF84F3118822
:1053E000BFF36F8F836898474FF02003EFF311846A
:1053F00083F31288BFF36F8F3B68A3EB0803B7E713
:105400008C1B0020E800002000020020014800F072
:1054100037BC00BF559C000010B50A4C23681BB177
:1054200001230020236010BD00F050F80028F7D0C1
:105430000138062803D8044B53F8200010BD034858
:1054400010BD00BF901B00200C8D0000FE8FFFFFE1
:10545000BFF34F8F0549064BCA6802F4E06213435D
:10546000CB60BFF34F8F00BFFDE700BF00ED00E052
:105470000400FA0530B44FF0FE320025074B084C0B
:1054800008494968C3F80024C3F80424C3F8082471
:10549000C3F80C24C4F8005530BC084700108450F1
:1054A00000008450F0000020024BD0E90012C3E954
:1054B00000127047F000002038B131B100220144E1
:1054C0000346013088421A70FAD1704738B500F0AF
:1054D0002FF820B1032400F063F8204638BD00F017
:1054E00031F898B900F0ACF898B90F4DD5F82839D3
:1054F0001B0EF02B08D1D5F8242A0C4B9A420AD067
:10550000072400F017F8E6E70624FAE7042420460B
:1055100038BD0024F5E7012000F092F80446002889
:10552000F7D1C5F80C0AD8E7001084500000E0203D
:105530000020704700207047014BC3F8040A7047F1
:105540000010845010B5114800F048F800B110BDAB
:105550000F4800F043F80028F9D10E4C204600F027
:105560003DF80028F3D10C4B0C481C6000F036F8D5
:1055700001460028EBD100F02DF8044608B1204682
:1055800010BD00F03FF82046FAE700BF04010020FC
:10559000F80000200001002008010020FC0000208D
:1055A00008B5084800F024F8074800F021F807483B
:1055B00000F01EF8064800F01BF8BDE8084000F0B7
:1055C0000BB800BF04010020F800002000010020FB
:1055D000FC00002000207047704700BF08B5034B57
:1055E00002681B6810689847002008BD140100205D
:1055F00008B5034B02685B6810689847002008BD37
:105600001401002070B5094C094D2069AB6898471A
:1056100018B1084B08485B6898470021074AEB68B7
:1056200011602069BDE87040184700BF24010020C8
:1056300014010020F0000020288D0000941B0020A1
:10564000F8B51A4D1A4E0446B26828699047E8B971
:10565000184F3B684CB1A3B1012B19D0013B3B6003
:105660002869F36898470020F8BD43B90121124A20
:10567000C2F800151149D1F81029002AFBD10133D5
:105680003B60F368286998470020F8BD0C48F8BDD6
:105690000A4AD2F81039002BFBD1074A6FF07E403E
:1056A000C2F80035FFF748FF3B68D7E72401002028
:1056B00014010020941B002000008450001084502E
:1056C000E98FFFFF10B5044650B1636813F0685FBF
:1056D00005D0064A934202D000236260236010BDC9
:1056E000034B04485B689847EFE700BF2C5F5CA959
:1056F000F0000020488D0000C8B143680D4A934275
:1057000013D013F0685F0ED0012350E8002F194624
:1057100040E8001C9CF0000FF7D1012AF5D0BFF340
:105720005F8F0020704704487047044870476FF44B
:10573000E04070472C5F5CA9E98FFFFFEA8FFFFF15
:10574000034680B1426809498A420AD012F0685F74
:1057500005D0BFF35F8F002210461A6070470448DF
:105760007047044870476FF4E04070472C5F5CA9B5
:10577000E98FFFFFEA8FFFFF10B5044620B1002339
:10578000034A2360626010BD0248FFF773FEF6E72C
:105790003A00003A708D000029B101290CBF0820A1
:1057A0006FF01500704702207047002070472DE908
:1057B000F7430E4617469946044628B94FF0FF387E
:1057C000404603B0BDE8F0830029F7D0002AF5D0A9
:1057D000CB680D8938461D44042329460DEB03028E
:1057E00000F057FB80460028E8D146F60812BDF8C5
:1057F00004107389914225D1BDF806109942DDD17C
:10580000042338460DEB0302294400F042FB002834
:10581000D4D146F60713BDF804209A42CED1C4E98C
:1058200000679DF82830A4F80890A3727389BDF82A
:1058300006202B44E360738913442B4404356361D1
:105840002561BDE7002BE4D0B8E72DE9F3410E4612
:1058500017461D46044620B94FF0FF3002B0BDE8A0
:10586000F0810368002BF7D04368002BF4D04FF68B
:10587000FF78D4E904239A4216D223685B8923B1C6
:10588000E368934204BF0433236104232169606801
:105890000DEB030200F0FDFA0028DDD1A37A2BB155
:1058A000D4E903329A4201D30120D7E72389BDF816
:1058B0000610434501F1040203D0BDF804C09C4525
:1058C0000BD115B1BDF804302B802369043333604C
:1058D0003980236913442361C0E72369134423619A
:1058E000C7E700F010BE4FF44073584330307047A4
:1058F0000B78022B06D0082B14BF4FF0FF304FF46B
:10590000407070474FF44070704710B5044600F087
:10591000FEFA4FF44072A368303B02FB103010BD1A
:1059200081680122183921F00701083901F0AFB967
:1059300013B50446019101F03BF90423A0F10801DD
:105940000DEB0302204601F076F902B010BD70B5F0
:1059500013460E461546002102460446FBF786FA1A
:1059600050B92B460121204604F12C02FBF77EFAA8
:1059700010B1002E08BF002070BD73B50446002092
:105980000D461646FFF708FF6946C0B2FCF718FA45
:1059900030BB2C2303FB0544E368258900981D4494
:1059A000042329460DEB030200F073FAC0B946F652
:1059B0000813BDF8042064899A42009815D1BDF8F7
:1059C00006309C420CD1042361190DEB030200F058
:1059D00060FA28B946F60713BDF804209A4207D0AA
:1059E000009800F055FA02B070BD002CF2D0F7E735
:1059F000BDF80610214429443160F1E737B54FF472
:105A000080750446426A01A902200195FCF700FA5C
:105A100058B9019B0820226DA36201A90195FCF7EA
:105A2000F7F9054628B1092500E00125284603B00D
:105A300030BD019B206A636500F069FAE065F5E717
:105A40000123036003F1012343600023C0E9023313
:105A500070474379012B07D10368012B04D10079EA
:105A6000431E584258417047002070477FB5064694
:105A70000D46022001A9FCF7A3F938BB0198FFF7F6
:105A800044FFF16D0446284600F0E5F8044401980F
:105A900000F03DFA0646019800F040FA082201465F
:105AA0000DEB020000F061FD2B7921468DF80830E6
:105AB0000198334602AA00F001FA041E019818BFAB
:105AC000012400F0E5F9204604B070BD0124FAE796
:105AD00000F009BA2DE9F8430E46002107460846B2
