:020000021000EC
:1080000098FD0020ADC701008383020081C70100F5
:1080100081C7010081C7010081C7010081C701003C
:10802000000000000000000000000000D5C00100BA
:1080300081C701000000000075C0010081C7010078
:108040005DC101005DC101005DC101005DC10100B4
:108050005DC101005DC101005DC101005DC10100A4
:108060005DC101005DC101005DC101005DC1010094
:108070005DC101005DC101005DC101005DC1010084
:108080005DC101005DC101005DC101005DC1010074
:108090005DC101005DC101005DC101005DC1010064
:1080A0005DC101005DC101005DC101005DC1010054
:1080B0005DC101005DC101005DC101005DC1010044
:1080C0005DC101005DC101005DC101005DC1010034
:1080D0005DC101005DC101005DC101005DC1010024
:1080E0005DC101005DC101005DC101005DC1010014
:1080F0005DC101005DC101005DC101005DC1010004
:108100005DC101005DC101005DC101005DC10100F3
:108110005DC101005DC101005DC101005DC10100E3
:108120005DC101005DC101005DC101005DC10100D3
:108130005DC101005DC101005DC101005DC10100C3
:048140005DC101001C
:04814400FFFFFFFF3B
:108148004FF0FF0C1CEAD0521EBF1CEAD15392EA32
:108158000C0F93EA0C0F6FD01A4480EA010C40020E
:1081680018BF5FEA41211ED04FF0006343EA501068
:1081780043EA5111A0FB01310CF00040B1F5000FAA
:108188003EBF490041EAD3715B0040EA010062F159
:108198007F02FD2A1DD8B3F1004F40EBC25008BF43
:1081A80020F00100704790F0000F0CF0004C08BF61
:1081B80049024CEA502040EA51207F3AC2BFD2F12E
:1081C800FF0340EAC250704740F400004FF000033C
:1081D800013A5DDC12F1190FDCBF00F00040704776
:1081E800C2F10002410021FA02F1C2F1200200FAB4
:1081F80002FC5FEA310040F1000053EA4C0308BF7B
:1082080020EADC70704792F0000F00F0004C02BFCB
:10821800400010F4000F013AF9D040EA0C0093F046
:10822800000F01F0004C02BF490011F4000F013BA0
:10823800F9D041EA0C018FE70CEAD15392EA0C0F0E
:1082480018BF93EA0C0F0AD030F0004C18BF31F079
:10825800004CD8D180EA010000F00040704790F04F
:10826800000F17BF90F0004F084691F0000F91F0F3
:10827800004F14D092EA0C0F01D142020FD193EAB9
:108288000C0F03D14B0218BF084608D180EA010041
:1082980000F0004040F0FE4040F40000704740F01D
:1082A800FE4040F44000704781F0004102E000BF0A
:1082B80083F0004330B54FEA41044FEA430594EA9E
:1082C800050F08BF90EA020F1FBF54EA000C55EAD9
:1082D800020C7FEA645C7FEA655C00F0E2804FEAAA
:1082E8005454D4EB5555B8BF6D420CDD2C4480EA8C
:1082F800020281EA030382EA000083EA010180EABC
:10830800020281EA0303362D88BF30BD11F0004F09
:108318004FEA01314FF4801C4CEA113102D040423F
:1083280061EB410113F0004F4FEA03334CEA13337A
:1083380002D0524263EB430394EA050F00F0A78092
:10834800A4F10104D5F1200E0DDB02FA0EFC22FA8D
:1083580005F2801841F1000103FA0EF2801843FA81
:1083680005F359410EE0A5F120050EF1200E012A72
:1083780003FA0EFC28BF4CF0020C43FA05F3C018B0
:1083880051EBE37101F0004507D54FF0000EDCF129
:10839800000C7EEB00006EEB0101B1F5801F1BD3D2
:1083A800B1F5001F0CD349085FEA30004FEA3C0CD6
:1083B80004F101044FEA445212F5800F80F09A80CC
:1083C800BCF1004F08BF5FEA500C50F1000041EBD0
:1083D800045141EA050130BD5FEA4C0C404141EBD4
:1083E8000101013C28BFB1F5801FE9D291F0000FCF
:1083F80004BF01460020B1FA81F308BF2033A3F17E
:108408000B03B3F120020CDA0C3208DD02F1140C74
:10841800C2F10C0201FA0CF021FA02F10CE002F1AF
:108428001402D8BFC2F1200C01FA02F120FA0CFCA8
:10843800DCBF41EA0C019040E41AA2BF01EB0451F1
:10844800294330BD6FEA04041F3C1CDA0C340EDCEF
:1084580004F11404C4F1200220FA04F001FA02F332
:1084680040EA030021FA04F345EA030130BDC4F1F0
:108478000C04C4F1200220FA02F001FA04F340EAE5
:108488000300294630BD21FA04F0294630BD94F096
:10849800000F83F4801306BF81F480110134013D7D
:1084A8004EE77FEA645C18BF7FEA655C29D094EAEE
:1084B800050F08BF90EA020F05D054EA000C04BF6C
:1084C8001946104630BD91EA030F1EBF0021002057
:1084D80030BD5FEA545C05D14000494128BF41F0F6
:1084E800004130BD14F580043CBF01F5801130BD5A
:1084F80001F0004545F0FE4141F470014FF00000E5
:1085080030BD7FEA645C1ABF194610467FEA655C95
:108518001CBF0B46024650EA013406BF52EA033537
:1085280091EA030F41F4002130BD00BF90F0000F25
:1085380004BF0021704730B54FF4806404F1320461
:108548004FF000054FF0000150E700BF90F0000F1A
:1085580004BF0021704730B54FF4806404F1320441
:1085680010F0004548BF40424FF000013EE700BF11
:1085780042004FEAE2014FEA31014FEA02701FBFA1
:1085880012F07F4393F07F4F81F06051704732F0D3
:108598007F4208BF704793F07F4F04BF41F400212A
:1085A800704730B54FF4607401F0004521F0004188
:1085B8001CE700BF50EA010208BF704730B54FF012
:1085C80000050AE050EA010208BF704730B511F013
:1085D800004502D5404261EB41014FF4806404F14B
:1085E80032045FEA915C3FF4D8AE4FF003025FEAD1
:1085F800DC0C18BF03325FEADC0C18BF033202EB55
:10860800DC02C2F1200300FA03FC20FA02F001FAAE
:1086180003FE40EA0E0021FA02F11444BDE600BF51
:1086280070B54FF0FF0C4CF4E06C1CEA11541DBF00
:108638001CEA135594EA0C0F95EA0C0F00F0DEF8CB
:108648002C4481EA030621EA4C5123EA4C5350EAB0
:10865800013518BF52EA033541F4801143F4801301
:1086680038D0A0FB02CE4FF00005E1FB02E506F092
:108678000042E0FB03E54FF00006E1FB03569CF0E7
:10868800000F18BF4EF0010EA4F1FF04B6F5007FED
:1086980064F5407404D25FEA4E0E6D4146EB06065F
:1086A80042EAC62141EA55514FEAC52040EA5E50E8
:1086B8004FEACE2EB4F1FD0C88BFBCF5E06F1ED892
:1086C800BEF1004F08BF5FEA500E50F1000041EBC9
:1086D800045170BD06F0004646EA010140EA020076
:1086E80081EA0301B4EB5C04C2BFD4EB0C0541EA98
:1086F800045170BD41F480114FF0000E013C00F3AD
:10870800AB8014F1360FDEBF002001F0004170BDD0
:10871800C4F10004203C35DA0C341BDC04F11404E9
:10872800C4F1200500FA05F320FA04F001FA05F275
:1087380040EA020001F0004221F0004110EBD37042
:1087480021FA04F642EB06015EEA430E08BF20EA6E
:10875800D37070BDC4F10C04C4F1200500FA04F311
:1087680020FA05F001FA04F240EA020001F00041A3
:1087780010EBD37041F100015EEA430E08BF20EA16
:10878800D37070BDC4F1200500FA05F24EEA020E5E
:1087980020FA04F301FA05F243EA020321FA04F08D
:1087A80001F0004121FA04F220EA020000EBD37044
:1087B8005EEA430E08BF20EAD37070BD94F0000F44
:1087C8000FD101F00046400041EB010111F4801F78
:1087D80008BF013CF7D041EA060195F0000F18BF29
:1087E800704703F00046520043EB030313F4801F65
:1087F80008BF013DF7D043EA0603704794EA0C0F1F
:108808000CEA135518BF95EA0C0F0CD050EA410634
:1088180018BF52EA4306D1D181EA030101F00041B1
:108828004FF0000070BD50EA410606BF10461946D9
:1088380052EA430619D094EA0C0F02D150EA0136E5
:1088480013D195EA0C0F05D152EA03361CBF104626
:1088580019460AD181EA030101F0004141F0FE41C5
:1088680041F470014FF0000070BD41F0FE4141F449
:10887800780170BD70B54FF0FF0C4CF4E06C1CEA49
:1088880011541DBF1CEA135594EA0C0F95EA0C0FFE
:1088980000F0A7F8A4EB050481EA030E52EA0335B9
:1088A8004FEA013100F088804FEA03334FF08055DA
:1088B80045EA131343EA12634FEA022245EA111507
:1088C80045EA10654FEA00260EF000419D4208BFB8
:1088D800964244F1FD0404F5407402D25B084FEA65
:1088E8003202B61A65EB03055B084FEA32024FF411
:1088F80080104FF4002CB6EB020E75EB030E22BF6E
:10890800B61A754640EA0C005B084FEA3202B6EB2D
:10891800020E75EB030E22BFB61A754640EA5C00DC
:108928005B084FEA3202B6EB020E75EB030E22BF6C
:10893800B61A754640EA9C005B084FEA3202B6EB6D
:10894800020E75EB030E22BFB61A754640EADC002C
:1089580055EA060E18D04FEA051545EA16754FEA8E
:1089680006164FEAC30343EA52734FEAC2025FEAAC
:108978001C1CC0D111F4801F0BD141EA00014FF03B
:1089880000004FF0004CB6E711F4801F04BF01430C
:108998000020B4F1FD0C88BFBCF5E06F3FF6AFAE28
:1089A800B5EB030C04BFB6EB020C5FEA500C50F1B8
:1089B800000041EB045170BD0EF0004E4EEA11313B
:1089C80014EB5C04C2BFD4EB0C0541EA045170BD42
:1089D80041F480114FF0000E013C90E645EA060E86
:1089E8008DE60CEA135594EA0C0F08BF95EA0C0FB4
:1089F8003FF43BAF94EA0C0F0AD150EA01347FF4FC
:108A080034AF95EA0C0F7FF425AF104619462CE7D2
:108A180095EA0C0F06D152EA03353FF4FDAE104635
:108A2800194622E750EA410618BF52EA43067FF486
:108A3800C5AE50EA41047FF40DAF52EA43057FF416
:108A4800EBAE12E74FEA4102B2F1E04324BFB3F5BF
:108A5800001CDCF1FE5C0DD901F0004C4FEAC002AD
:108A68004CEA5070B2F1004F40EB830008BF20F091
:108A78000100704711F0804F21D113F13872BCBF4B
:108A880001F00040704741F480114FEA5252C2F1A0
:108A98001802C2F1200C10FA0CF320FA02F018BFE9
:108AA80040F001004FEAC1234FEAD32303FA0CFC3C
:108AB80040EA0C0023FA02F34FEA4303CCE77FEACB
:108AC800625307D150EA01331EBF4FF0FE4040F415
:108AD8004000704701F0004040F0FE4040F40000C4
:108AE800704700BF80F0004002E000BF81F0004105
:108AF80042001FBF5FEA410392EA030F7FEA226C3C
:108B08007FEA236C6AD04FEA1262D2EB1363C1BFCB
:108B1800D218414048404140B8BF5B42192B88BF3A
:108B2800704710F0004F40F4000020F07F4018BF5D
:108B3800404211F0004F41F4000121F07F4118BF7D
:108B4800494292EA030F3FD0A2F1010241FA03FC25
:108B580010EB0C00C3F1200301FA03F100F000430D
:108B680002D5494260EB4000B0F5000F13D3B0F1D5
:108B7800807F06D340084FEA310102F10102FE2A44
:108B880051D2B1F1004F40EBC25008BF20F00100B4
:108B980040EA03007047490040EB0000013A28BF53
:108BA800B0F5000FEDD2B0FA80FCACF1080CB2EBD6
:108BB8000C0200FA0CF0AABF00EBC2505242184354
:108BC800BCBFD0401843704792F0000F81F40001F9
:108BD80006BF80F400000132013BB5E74FEA4103CC
:108BE8007FEA226C18BF7FEA236C21D092EA030F38
:108BF80004D092F0000F08BF0846704790EA010FB2
:108C08001CBF0020704712F07F4F04D1400028BFDE
:108C180040F00040704712F100723CBF00F50000C0
:108C2800704700F0004343F0FE4040F400007047F6
:108C38007FEA226216BF08467FEA236301464202A2
:108C480006BF5FEA412390EA010F40F480007047B5
:108C58004FF0000304E000BF10F0004348BF40425B
:108C68005FEA000C08BF704743F0964301464FF097
:108C780000001CE050EA010208BF70474FF00003F3
:108C88000AE000BF50EA010208BF704711F0004334
:108C980002D5404261EB41015FEA010C02BF844604
:108CA8000146002043F0B64308BFA3F18053A3F563
:108CB8000003BCFA8CF2083AA3EBC25310DB01FAAA
:108CC80002FC634400FA02FCC2F12002BCF1004F2E
:108CD80020FA02F243EB020008BF20F001007047BF
:108CE80002F1200201FA02FCC2F1200250EA4C0013
:108CF80021FA02F243EB020008BF20EADC70704759
:108D080053B94AB9002908BF00281CBF4FF0FF31EA
:108D18004FF0FF3000F00CB8ADF1080C6DE904CE4F
:108D280000F008F8DDF804E0DDE9022304B070473C
:108D3800704700BF2DE9F04786468C460846089ED6
:108D4800154674461946002B40F0C1808542B2FA98
:108D580082F245D94AB1C2F1200300FA02FC9540DB
:108D680094402EFA03F343EA0C0C4FEA154EA8B2CE
:108D7800230CBCFBFEF80EFB18CC08FB00F943EAF9
:108D88000C43994528D9EB1808F1FF3704D29945C7
:108D980002D9A8F102072B44A3EB0903A4B2B3FB41
:108DA800FEFC0EFB1C330CFB00F044EA0344A0421B
:108DB80014D92C190CF1FF3304D2A04202D9ACF11A
:108DC80002032C44241A43EA07401EB1D44000236E
:108DD80034607360BDE8F0874746DDE76346F1E736
:108DE80092BB431B01214FEA154EAFB2200CB3FBD7
:108DF800FEFC0EFB1C330CFB07F840EA03439845C6
:108E080061D9EB180CF1FF3004D2984502D9ACF1C6
:108E180002002B44A3EB0803A4B2B3FBFEFC0EFB39
:108E28001C330CFB07F744EA0344A7424DD92C191D
:108E38000CF1FF3304D2A74202D9ACF102032C444F
:108E4800E41B43EA0040C0E7C2F120039540944088
:108E580020FA03F12EFA03F34FEA154E9040AFB211
:108E68000343B1FBFEFC0EFB1C10190C0CFB07F8AE
:108E780041EA0041884522D969180CF1FF3004D233
:108E8800884502D9ACF102002944A1EB08019BB244
:108E9800B1FBFEFC0EFB1C110CFB07F743EA014378
:108EA8009F420ED9EB180CF1FF3104D29F4202D930
:108EB800ACF102012B44DB1B41EA004193E7604619
:108EC800E3E76146F7E76046A4E76346B8E783420D
:108ED80006D916B9002108467CE7C6E900E0F9E79B
:108EE800B3FA83F78FB9834201D3724508D8BEEB32
:108EF800020460EB030301209C461EB9002169E7C8
:108F08003846FAE7C6E9004CF8E7C7F1200CBB4041
:108F18000EFA07F522FA0CF42EFA0CF1BA401C43AB
:108F280020FA0CF3B8404FEA144901431FFA84FEB3
:108F3800B3FBF9F809FB18300B0C08FB0EFA43EAEF
:108F480000439A4540D9E31808F1FF3004D29A4506
:108F580002D9A8F102002344A3EB0A0389B2B3FBA8
:108F6800F9F809FB183308FB0EFE41EA03418E4568
:108F78002CD9611808F1FF3304D28E4502D9A8F123
:108F88000203214443EA0040A1EB0E01A0FB029832
:108F98004145CE46434602D306D14D4504D2013859
:108FA800B9EB020E68EB0403002EA7D0B5EB0E0256
:108FB80061EB030101FA0CFC22FA07F3F9404CEAD1
:108FC8000303C6E9003199E74046C5E74346D9E7B8
:108FD80010F8012B11F8013B012A28BF9A42F7D05B
:108FE800D01A7047034613F8012B002AFBD1181A30
:108FF80001387047000000000023F0B58DB000AFC5
:10900800C7E9043304230D4606467B60002800F0B8
:10901800D580002900F0D280062107F1100010F059
:10902800CBFC044690B16D4688B06A46684B4FF455
:10903800C251C2E905300323664842F8103F10F0D8
:1090480019FEAD4620463437BD46F0BD014607F14E
:109058001002304610F097FC044698B16D4688B06F
:109068006A465D4BC2E9053403234FF4C25159489F
:1090780042F8103F10F0FEFDAD4607F1100010F069
:10908800C5FCDFE703213B1D07F1080207F11000CB
:1090980010F09AFD044620B16D4688B06A464F4BE1
:1090A800E0E77B68014630333B4403F8280C022292
:1090B80007F108000DF08EFC3A460121C6B207F10F
:1090C800100010F055FD044620B16D4688B06A4680
:1090D800434BC7E73B68042B28D0052B0ED02870DC
:1090E800404B4FF48451FB6202233A48BB6207F1BC
:1090F800280210F0BFFD6FF07F04BEE709230F2E92
:109108002B7036D96C4688B06A46374B53616FF07E
:109118001503936103234FF4C2512E4842F8103FC0
:1091280010F0A8FDA5466FF01504A6E707230F2E3B
:109138002B70E7D82D4B33F816002D4EF0B1FFF702
:1091480005FA21A3D3E90023FFF76AFAFFF77AFCAF
:10915800042168607B1807F1080207F110007960A4
:1091680010F032FD044658B16D4688B06A46214B6E
:1091780078E7214B33F81600204EDFE72048E7E771
:109188007B68014630333B4403F8280C022207F180
:1091980008000DF01FFCC0B20F2806D96C4688B035
:1091A8006A46184BC2E90530B4E70130C0B2FFF790
:1091B80053FD3146FEF7C4FFA8605EE76FF0150463
:1091C80040E700BFAFF300807B14AE47E17A24404C
:1091D80071E00200E8BD02009AE00200C6E0020069
:1091E800F2E0020014E102003CE102009CC502002A
:1091F8000AD7A33F60E102007CC502000AD72340DA
:109208000AD7A3408BE10200F0B502F1080383B04E
:1092180023F0070300AFADEB030D0546684614467F
:1092280012F04CF900236E460DF804308AB06B46F4
:109238000E4903F11002C3E905150D49DE61796095
:10924800381D03F11F0103F1230410F8015B01F835
:10925800015FA142F9D10749074819614FF4235129
:109268000EF004F90C37BD46F0BD00BFBCC50200C6
:10927800000201030400000280BD02002DE9F04352
:1092880089B00B7806460C4600AF092B00F2258101
:10929800DFE813F00A004C00590000012301230104
:1092A80023010D0123011A01CB694BB16C4688B02B
:1092B8006A468C49C2E90513032342F8103FE6E0E9
:1092C8006D46894B894CFB61022307F118024FF464
:1092D8008651BB6186480EF0C9F82046BC60FFF78E
:1092E80081FE01233B7407F108033B60814BF86062
:1092F8007B602046FFF776FE8AB06A467E4BD061D7
:10930800C2E905344FF4007313847C4B4FF41351B6
:10931800774842F8103F0EF0A9F83946AD46304676
:109328000FF017FE2437BD46BDE8F0836C4688B0C1
:10933800CB696A467249C2E9051303234FF4C65143
:1093480042F8103F4DE06D4688B06A46C9696369C6
:10935800D36104236B48C2E905014FF40351644803
:1093680042F8103F0EF082F8D4F81480AD46B8F1F8
:10937800800F12D9DFF8909149463046A8F1800253
:109388000FF094FE051E31D032DBA8EB0508B8F1CA
:10939800800FF1D86FF0790901E04FF000094246DB
:1093A800304659490FF085FE054608BB237B012B43
:1093B80006D1238B30463B8107F108010FF07BFD76
:1093C800B9F1000F20D063696C4688B06A464F49EE
:1093D800C2E905138023D36104234FF4015142F8F5
:1093E800103F43480EF042F8A5469BE76FF004058E
:1093F800237B012B06D1238B30463B8107F10801E3
:109408000FF059FD002D18DB62693F494048FFF70E
:10941800FBFE06223F493C4812F07CF850B1072277
:109428003D49394812F076F800287FF47BAF10F0F8
:1094380084FA77E710F07EFA74E715F17A0FC2D054
:109448006C4688B06A46354B4FF4C251C2E90535BF
:109458000325274842F8105F0EF008F8A546304B60
:109468002348FB6102234FF48651BB6107F11802C0
:109478000DF0FCFF30460FF044FD00283FF452AFDA
:1094880088B06A46274BC2E9053042F8105F4FF4AE
:10949800C251A6E7CB6923B16C4688B06A46224917
:1094A80008E76C4688B06A468B88204943E7CB6951
:1094B80023B16C4688B06A461D49FBE66C4688B005
:1094C8006A468B881B4936E7CB69002B3FF42AAFE5
:1094D8006C4688B06A461849ECE66C4688B06A461D
:1094E800164928E7C1C50200D9C50200EFC5020028
:1094F80080BD02000100D2040AC602000400000177
:1095080024C6020041C602007AD900205FC60200C4
:10951800AEC60200B9C60200C0C60200C8C6020034
:10952800E8C6020005C702001EC7020034C70200D1
:1095380049C702005FC7020074C702008CC7020057
:109548002DE9F0411B4C86B0804600AF20461546F9
:109558001E4639723C60FFF745FDC7E9035678603F
:1095680003F01CFEBB7D324623F003032946B88274
:10957800BB751148FFF748FE2046FFF733FD6D46DF
:109588008AB06A460D4BD061C2E905344FF40073C6
:1095980013840B4B4FF4135142F8103F09480DF058
:1095A80065FF3946AD4640460FF041FC1837BD46C9
:1095B800BDE8F081AAC70200C3C70200D0C70200F5
:1095C8000400000180BD02002DE9F04F9DB002AFFC
:1095D80007F1180804460FF0D1FB5022002140463D
:1095E80011F079FF01234246C7E9083300215648A4
:1095F8003B1D0EF06BFD054600B36C4688B002AA11
:10960800524B4FF4C251C2E905300323504842F887
:10961800103F0DF02BFFA5464E4B6FF00905FB627E
:1096280002234FF482514A48BB6207F128020DF029
:109638001DFF28466C37BD46BDE8F08F4FF0080A7D
:109648007E68DFF8149142482EB37369082B46D11F
:10965800B36942495B6801204B6045F607330880CF
:109668004B8007F1080610233246043103F0DEFB75
:10967800E94688B002AB3A4A4FF4E651C3E90526F9
:109688004FF400729A831A46364B314842F8103F1D
:109698000DF0ECFECD4678680EF01AFD2F4B3248DF
:1096A8006363324BA364FFF79DFC58B32E493048DF
:1096B80011F028FF2E48E062FFF794FC042284F89A
:1096C8005E202C4A0023E26480222B49C4E90E3331
:1096D800C4E915122063226584F82430A9E7EB4613
:1096E8008AB002AAC2E90593182313620523C2F8B7
:1096F8001CA04FF4215142F8103F0DF0B7FEDD4693
:109708003668A0E7172140461C4A0BF083F878B169
:109718006E4688B002AA1A4B4FF4C251C2E905300E
:1097280003230B4842F8103F0DF0A0FEB546C1E7F1
:1097380087F827000F231421124ACDF800800C481F
:109748000CF07CFFB6E700BFE5C70200F8C70200CF
:1097580080BD02000FC802004CC8020048D9002092
:1097680036C802000300000182E902008592010068
:1097780066D900207ADA0020FAD900206FC80200E2
:1097880077C8020098C8020098B5012100AF1723D6
:109798000A4A0B48FFF7D4FE70B16C4688B06A4697
:1097A800084B4FF4C651C2E905300323064842F876
:1097B800103F0DF06AFEA546BD4698BDA1C802003F
:1097C80068D00020B9C8020080BD020098B50378AF
:1097D80000AF1BB1032B1FD0BD4698BD037A012BE8
:1097E80018D0052BF8D1194B6C4688B06A46184931
:1097F8001848C2E905134FF400739383164B4FF4CE
:10980800E65142F8103F0DF040FEA54613480BF014
:1098180045FEE1E7124BE7E7017A124A124B6C4624
:1098280088B0012908BF13466A4610490948C2E9A9
:1098380005134FF400739383074B4FF4E65142F836
:10984800103F0DF022FEA546C6E700BFEDC8020096
:1098580010C9020080BD020003000001FCC80020FE
:10986800D4C8020001C902000BC9020030C90200B5
:10987800F0B587B000AF00214FF4A0200CF0BCFA7F
:1098880005F01AFE50B1844B4FF482517B610223DC
:1098980082483B6107F110020DF0F7FD6D46022486
:1098A8007F4B7E484FF486517B613C6107F1100283
:1098B8000DF0EBFD7B4810F0D0F9002834D088B0CB
:1098C8006A46794B4FF4C651C2E905300323734801
:1098D80042F8103F0DF0D9FDAD46744805F026FE5C
:1098E80050B1734B4FF482517B6102236B483B614B
:1098F80007F110020DF0C9FD6E48FFF765FE04463A
:10990800002851D06D4688B06A466B4B4FF4C2515F
:10991800C2E905300323614842F8103F0DF0B5FD58
:10992800AD461C37BD46F0BD4FF0FF324FF0FF3358
:1099380062480BF0D9FD624B4FF48651C7E90443E6
:10994800564807F110020DF0A0FD01200FF0F2FFBC
:10995800C3E7013414D06E4688B06A46594B4FF4B9
:10996800C65153613C23936103234C4842F8103F8E
:109978000DF08BFDB5464FF4F01000210CF03CFAC9
:109988004C480FF012FA88B16E4688B06A464E4BC2
:10999800C2E9053003234FF4C251404842F8103F52
:1099A8000DF073FDB546D4E7484DE9E7294641482F
:1099B8000DF05FFD88BB3F4E30460FF03FFB02467F
:1099C800012128460EF07BFC002836DA0EF01BFD3C
:1099D8006E4688B003686A463D49C2E90513032309
:1099E8004FF4C2512D4842F8103F0DF04EFDB546D8
:1099F8006E46384B29487B6102234FF486513B6100
:109A080007F110020DF041FD2A480FF07AFA0028FC
:109A18009FD088B06A46304BBAE76C4688B06A4631
:109A28002E4B4FF4C251C2E9053003231B4842F8BC
:109A3800103F0DF02AFDA54673E730460FF0D9FA1E
:109A480048B110F10B0F06D06E4688B06A46244B19
:109A5800C2E90530C3E7EB88D90708D530460FF0CF
:109A680004FB20B16E4688B06A461E4BF0E7B5F994
:109A780006301A070BD51C4B7B6102234FF4825129
:109A880006483B6107F110020DF0FFFCB0E79B06AA
:109A980092D5164BF0E700BF3DC9020080BD020019
:109AA80062C90200D59701007CC9020099740200BE
:109AB800BEC9020068D00020E7C90200FCC8002027
:109AC800A5C902000CCA02002ACA020060D0002000
:109AD8005ACA0200AECA0200C8CA020044CA02003A
:109AE8006ECA020085CA02009DCA0200A5CA020009
:109AF8002DE9F04F91B0009302F004030293C2F3F2
:109B0800C2030133840705460E46DDF868800392D8
:109B1800059340F0BD81041D30B1072909D86FF0C5
:109B28001B0011B0BDE8F08F01F00706341DC6F127
:109B38000806009B4FF000094FF0040A591E4FF029
:109B4800FF334F460193CB465346CDF810900DB1E5
:109B5800009A22600598002800F3EB809948009A43
:109B6800824203D398488242C0F0E380039AA4EB70
:109B7800050E92074FEA9E0000F106810F2F00F2B2
:109B8800B480002D00F0088107F140020DEB020CB3
:109B9800019A0CF8200C0CF8102C04980130049051
:109BA800EAE07A2860D84B280ED847285CD82928BC
:109BB8002FD8252855D057D820287DD02338D0F144
:109BC800000B4BEB000B77E0A0F14C0CBCF12E0F17
:109BD8004AD8DFE80CF07149494949494949494996
:109BE80049494C49494949494949495A494C4C5AB2
:109BF8005A5A714C6E497149184C18494983804C1E
:109C080049494C49800000204FF0000B4FF0040AEE
:109C180039E00122A0F12A0C5FFA8CFC02FA0CFC54
:109C28001CEA0E0F48D11CF062502ED11CEA020B20
:109C380042D0013C5444CAF1000C04EA0C04002D43
:109C480061D0A3EB050CA4446645FFF468AF002877
:109C580068D1042B47D158F8043B2360042304340B
:109C68002AE0019A013A01924FF0000B24E011F822
:109C7800010C6C2834D1002011F8023C83466C2B6F
:109C8800C4D14FF0080A5346D3E708F1070828F073
:109C98000708073424F00704F8E802AB35B1069842
:109CA8002044B0423FF63BAFC4E900AB4FF0000B95
:109CB80008344FF0080A534611F8010F002878D0ED
:109CC800BBF1000F7FF46DAF2528F5D14FF0010BE4
:109CD800019B013301934FF0040AECE7584693E7E0
:109CE80000208346A5E7082B02D06FF0150018E77F
:109CF80008F1070828F00708F8E80223C4E9002358
:109D080008230834D8E768B9042B02D108F10408FD
:109D1800A4E7082BE9D108F1070828F0070808F19B
:109D28000808EDE7059A013A059258F8042B0092C5
:109D38000DE7039A900720D54FF0010CA4EB050E10
:109D48004FEA9E00BEF5007FCFD20F2FCDD8F5B1D8
:109D580007F140020DEB020E019AC0B20EF8200C7A
:109D68000EF8102CBCF1000F3FF417AF60F07F0025
:109D78000EF8200C09F101090137C5F108024FF668
:109D8800DA7E0434069297E74FF0000CDAE7BCF16C
:109D9800000F01D00136EFE7029802360028EBD118
:109DA8000098CDE90631FFF71DF9DDE906310644D3
:109DB800E2E7631BB3F5806F97D23DB9A6F10804BB
:109DC800E018AEE6C8B9020084ED0200029A9B08CA
:109DD80028602B709DF81030C2B1EB7085F80290A6
:109DE800B9F1000F05D0002208A8C5F1010C97426F
:109DF8000ED14FF0000AC5F101030DF120080193BF
:109E08000DF1300B574512D1601B8AE66B70E5E700
:109E180010F8013B190608D504EB0C0E764503F043
:109E28007F03FFF47CAE04F8013B0132DFE7B9F1B0
:109E3800000F03D098F90020002A17DB029BD3B14A
:109E48001AF80B2004F8012B0022019B98182044D3
:109E58008642FFF464AE98F80000009904F8010BFC
:109E68002046039211F02AFB039A14440AF1010ACE
:109E780008F10108C6E798F8002055F82230009349
:109E8800029B009845F82230FFF7ACF8421CDCE74B
:109E98006FF00D0045E600BF2DE9F04F95B000AF1B
:109EA800BB61BB6F0446C3F3C00388467A62FB609C
:109EB80049B903784578807800EB8300204445450C
:109EC80019D8A0EB0408E37894F802B07B61BBF1E1
:109ED800000F02D0BB6FD80716D47B6953BB7B6ACF
:109EE8001BB141462046BA6998474546284654372B
:109EF800BD46BDE8F08F461C3046FFF773F80130C9
:109F0800304408F10108DAE7237862683B629B0075
:109F18003B613B6AFA6104EB830A7B6A002B40F0E1
:109F2800FF8045460026D0460BEB0A09C14551D1B2
:109F3800DA4413E0BB6F9907D1D523789A463B6280
:109F48009B003B61636804EB8A0AFB617B6A002B18
:109F58007AD14546BBF1000F4FD15E46BB6F13F077
:109F6800050F0CBF4FF0020B4FF0010B7B690AEB9A
:109F78004309BB6F03F002037B62CA45B6D01AF8E7
:109F8800021B1AF8013C54F82380AB4B984502D3C6
:109F9800AA4B984538D3FB68002B42D0F8690DF0DE
:109FA800AFFA00283DD0E8468AB06A46A44B536110
:109FB800FB69C2E906314FF400731384A14B42F8E0
:109FC800103F00234FF412519F4801F0B1F9023DB0
:109FD800C546D2E718F8013B54F82300FFF702F80A
:109FE800FB6F01303BB1D7F880309E423EBFFB6F1C
:109FF80023F816000136054498E7BB6F13F00406F2
:10A008001CBF7E6ADA44A9E7FB6823B1F8690DF042
:10A0180077FA0028C7D1BB6FDA0705D4A5EB0B0583
:10A02800ABE77B6A002BA8D04046FEF7DBFFFB6F4F
:10A0380043B1D7F880309E423FBFFA6F431C22F8E5
:10A0480016300136054498E7BBF1000F6ED0BB6FA0
:10A0580013F004066DD0D946002607F140005A4691
:10A06800514611F02BFA7B69DA445B007B607B690F
:10A078000AEB4303BB60BB6F03F002033B60BB68A2
:10A08800534558D1B96F6378B86F890748BF002125
:10A0980006EB030258BF4FEA5901C507D2B200F1D7
:10A0A8009A8010F0040F14BF48460020FB616270CC
:10A0B800A070E1702046BA6939697B6A9847051E25
:10A0C800FFF614AF3B6A49462370FB69BA696370AF
:10A0D8007B6984F802B0E37007F140007B6A984717
:10A0E800B0F10009C0F2A4803B69A8EB0B01C91AC2
:10A0F8007B685046C91ABA697B6A98470028C0F23B
:10A1080099804FF0000BA94409EB000507F1300ACC
:10A11800B34562DB0021BA6908467B6A9847E5E6E1
:10A128005E464FF0000907F1300098E75E46D946D1
:10A1380099E7B14697E71AF8021B3F4B1AF8015CFA
:10A1480054F82500984202D33C4B98421DD3FB6833
:10A1580023B1F8690DF0D4F9002890D13B68FBB918
:10A1680009F1280307F1280209F1010003EB020CA9
:10A1780007F1500309F1020953FA80F00CF8101C9A
:10A188005FFA89F900F8105C79E7FB682BB1F86988
:10A198000DF0B6F900287FF472AFBB6FDB0709D565
:10A1A80006F1280307F12802711C9E1806F8205CA6
:10A1B800CEB264E7BB6F58077FF561AF09F128039A
:10A1C80007F1280209F1010103EB020909F8105C03
:10A1D8005FFA81F953E7002068E71BF80A3054F862
:10A1E800239087F82F30FB6FFBB133F81B800121D8
:10A1F800BA697B6A07F12F00984700281ADB0544E3
:10A20800B8F1000F06D14846FEF7ECFE00F1010850
:10A218001FFA88F841464846BA697B6A9847002879
:10A2280008DB05440BF1010B72E7D7F87C80DEE709
:10A238004D465BE6054659E6C8B9020084ED0200C2
:10A2480002CB02000400000198BD0200032808B5F3
:10A2580006D90EF0D8F8092303604FF0FF3008BD87
:10A26800044B03EB4013D3E8AF3F002BF1D00020A1
:10A27800F5E700BFD4D0002070B504460E46154659
:10A28800FFF7E4FF00280CDB074B610103EB4414E4
:10A29800626832601DB101F10C021A442A605858F4
:10A2A80070BD0020FCE700BFCCD0002010B5002412
:10A2B8004FF0FF334FF0FF3214480BF005F8144B02
:10A2C800D3E8AF2F7AB10134042C03F12003F7D17E
:10A2D8000EF099F817234FF0FF3403600B480BF08A
:10A2E8006DF8204610BDD3E8EF0F0130C3E8E10F49
:10A2F8000029F8D10748630100EB4411C2504A60B5
:10A308000C33184410F080FCE8E700BF6CC800204C
:10A31800D4D00020CCD0002010B404461046094BFD
:10A32800620103EB44149950606040B1C46834B1D1
:10A338000C32134410BC40F205120DF006B910BCE3
:10A34800704700BFCCD0002030B50D49400100F166
:10A3580008030B44D3E8AF2F82B1541ED3E8EF5F54
:10A36800954204D1C3E8EC4FBCF1000FF6D1F1D10E
:10A37800012A01BF00230A180B50536030BD00BFEB
:10A38800CCD00020014B1860704700BF80C500206A
:10A3980030B5002587B0CDE903010446009503A92F
:10A3A8000548059500F07AF9DDE904309842B8BF10
:10A3B800255407B030BD00BF757502002DE9F04780
:10A3C800058B04462807904611D4022905F0070595
:10A3D80040F0CD8020460DF0C5FA78B10138218BC8
:10A3E800042811D8DFE800F0C3106D859500012915
:10A3F8000CBF45F0100545F02005258388F311882A
:10A40800BFF36F8FBDE8F08701F0070AAA4500F097
:10A41800A6800027B9463E46A368002B00F0BD8001
:10A4280041F00801218388F31188BFF36F8FA16879
:10A43800002900F0BB800D68002900F0B780334682
:10A4480052462046D1F80480C047002D76D02B68AC
:10A4580029461D46F0E701F007035A1F012A1BD8B9
:10A46800002221F00701062B276889B2C4E90022DF
:10A4780009D13B4603E0628B013262831B68002BE3
:10A48800F9D141F00201204621830DF06BFA002832
:10A498007BD041F0200177E0042B0AD121F007019D
:10A4A80089B2204621830DF05DFA10B141F02001F8
:10A4B8002183218B01F0070AAA4550D00027B9460D
:10A4C800AAE7236921F0070141F00601062DD3F818
:10A4D800009021832DD1B9F1000F40D041F008013F
:10A4E800218388F31188BFF36F8F20463949C84705
:10A4F80029E021F00701236941F0040189B2042D04
:10A50800D3F804902183E6D000274FF0040A3E4692
:10A5180082E721F00701236941F0050189B2052D81
:10A52800D3F808902183D6D000274FF0050A3E467D
:10A5380072E700274FF0060A3E466DE72B4687E78D
:10A54800B9F1000FD1D14FF02003EFF3118883F355
:10A558001288BFF36F8F238B23F008032383258B87
:10A56800EA062ED525F01003238305F00705666952
:10A57800218B002EBFF66FAF00232768C4E9003394
:10A5880021F0070141F001012183218B4FF00009DF
:10A5980001F0070AAA457FF43FAF002F9BD041F096
:10A5A8000801218388F31188BFF36F8F002FC7D06C
:10A5B8003D6839463346524620460DF0FFF92F468E
:10A5C800F4E7AB067FF51AAF25F02003238305F0E7
:10A5D8000705FFE6F1790200F0B5024601680A278F
:10A5E8000020074E0B461C780131355D6D0701D4FC
:10A5F8001360F0BD07FB0043A3F13000F2E700BF92
:10A6080021EC02002DE9F84F15469A46D378224AE4
:10A618006F2B12F803B080460F460BF0030B29D0BE
:10A6280024D8582B0CBF10260A26DDF8289032466D
:10A63800002340463946FEF763FB092AD4B21ED8E8
:10A648003034B045E4B277F1000709F8014D01D381
:10A65800D14511D82B789B0605D5082E15D1AB7896
:10A6680043F00803AB704846BDE8F88F03F0F703E2
:10A67800702BD7E70826D8E780460F46D7E7BBF107
:10A68800010F0CBF37345734DBE7102EEBD1AB7812
:10A6980043F01003E6E700BF21EC02002DE9F04F7C
:10A6A800824617461C46002597B00391387808B9AA
:10A6B800284649E37B1C2528049306D00399D047F4
:10A6C8000028C0F241830135F0E11822002110A8CA
:10A6D80010F001FF7B78252B00F0A380002398461B
:10A6E8009E469C461846791C0E4611F8012B2B2ACB
:10A6F80000F0C68000F2BD80202A00F0C480232A22
:10A7080000F0C4802BB19DF8483043F040038DF829
:10A718004830B8F1000F05D09DF8483043F02003C9
:10A728008DF84830BEF1000F05D09DF8483043F051
:10A7380010038DF84830BCF1000F05D09DF8483063
:10A7480043F008038DF8483028B19DF8483043F0AD
:10A7580004038DF848309DF8483003F0440144293B
:10A7680003D16FF386138DF848309DF848302A2AB4
:10A7780043F0800309968DF8483040F08C809DF8AE
:10A78800493043F001038DF84930731C1A782E2A9A
:10A798000CBF012100219DF8492061F341028DF889
:10A7A80049200CD15A1C09925A782A2A40F08380F1
:10A7B8009DF84920023342F004028DF849201A78A6
:10A7C8006C2A00F0A48000F28680682A00F08C8051
:10A7D8006A2A00F0A5804C2A00F0AA801A4612F8CE
:10A7E800013B782B04928DF84B309DF8492000F2FC
:10A7F80017816D2B00F2A980692B00F21181572B6C
:10A8080000F2BE80412B03D0453B022B00F20881A9
:10A8180004229DF84A3062F302038DF84A3001237E
:10A82800CAE0BA1C04928DF84B309DF84930DA071B
:10A8380040F1FD8054F8049BB9F1000F07DA9DF848
:10A848004820C9F1000942F004028DF848205E074B
:10A8580040F1F68054F804BBBBF1000F80F2F5809C
:10A868009DF849306FF341038DF849304FF0FF3BB5
:10A87800EBE02D2A0DD0302A7FF444AF012333E7D3
:10A888004FF0010C30E74FF0010E2DE74FF00108B3
:10A898002AE7012028E709A8FFF79EFE099BB34293
:10A8A8003FF474AF9DF848201390C00F60F3410245
:10A8B8008DF848206AE709A8FFF78EFE9DF8483012
:10A8C8001490C3F3400242EAD07262F341038DF858
:10A8D8004830099B73E7742A26D07A2A7FF47EAF22
:10A8E80006219DF849200CE05A78682A9DF84920ED
:10A8F80006D1012161F3C6028DF8492002336DE7C4
:10A90800022161F3C6028DF84920013366E75A78BF
:10A918006C2A9DF8492001D10421EBE70321F0E7D7
:10A9280005219DF84920ECE707219DF84920E8E733
:10A93800BDF8482022F4F04222F0020242F480429C
:10A9480042F00202ADF84820DFE76E3BD9B201239E
:10A958008B4040F282410B4238D113F0240F52D180
:10A96800D8075DD503219DF84A3061F302038DF8BD
:10A978004A3002F07803A3F140014B424B411BE0FF
:10A988000120A3F15801C9B200FA01F111F4624F94
:10A998007FF43EAF40F6010631421DD111F4043F69
:10A9A8003ED09DF84A3060F3020302F07802402A54
:10A9B8008DF84A3034D000239DF84820C2F3400176
:10A9C8000B4363F341028DF848202EE702219DF8DE
:10A9D8004A3061F30203E8E702209DF84A1002F0CA
:10A9E800780260F30201402A8DF84A1002BF9DF8F0
:10A9F800481041F001018DF84810632BDBD1131E7C
:10AA080018BF0123D8E703219DF84A3012F0780FC8
:10AA180061F302038DF84A3014BF01230023CBE70A
:10AA28009DF8483043F001038DF84830C3E79DF99D
:10AA38004820002AACBF4FF0FF39DDF84C9006E7FC
:10AA480098077FF513AFDDF850B00023CDE9133335
:10AA58009DF84A309DF8491003F00703012BC1F314
:10AA6800C30133D1CB1E042B04D8DFE803F0214601
:10AA780046212100236801294FEAE372CDE910320B
:10AA88001CD19DF94030DA17CDE9103204349DF815
:10AA9800483013F0030650D03A465046049B0399B9
:10AAA8000DF048F80028C0F24F810544049FFDE5E9
:10AAB80054F8043BDA17CDE91032E8E70229E5D16A
:10AAC8001AB243F3C033CDE91023DFE7022B24D1B8
:10AAD800CB1E042B04D8DFE803F018101018180058
:10AAE80001294FF0000254F8043B14D00229CDE9A3
:10AAF8001032CCD19BB21093C9E7073424F0070475
:10AB0800F4E80223CDE91023C1E754F8043B10937D
:10AB180000231193BBE7DBB2CDE7042B08D1073440
:10AB280024F00704D4E900230834CDE91023AEE764
:10AB3800032BACD154F8043BDDE79DF84B00782893
:10AB4800B4D862281CD825283FF4B8AD5828ADD110
:10AB5800DDE910010DF13E03009312AA0AABFFF7DD
:10AB680051FDBBF1000F074680F29780002F9DD062
:10AB78000DF13E08A8EB0700002E4ED001304CE046
:10AB88006338152892D801A252F820F013AC0100BE
:10AB980079AC0100B5AA0100B5AA0100B5AA010067
:10ABA800B5AA010079AC0100B5AA0100B5AA010057
:10ABB800B5AA0100B5AA010001AD01009DAC0100D4
:10ABC800C3AC0100B5AA0100B5AA0100EDAB0100B4
:10ABD800B5AA01009DAC0100B5AA0100B5AA010003
:10ABE8009DAC0100BBF1000F109F0ADB59463846A7
:10ABF80010F0B5FC07EB0008002F3FF457AF002614
:10AC08000BE03846FEF7EEF9F4E700260120109B2A
:10AC18000DF129088DF828300AAF9DF84A3013F055
:10AC28001002059200F0838002305B06DDF84CB01C
:10AC380048BF149B584448BFC018B9F1000F40F3EF
:10AC480090809DF84820A9EB0009C2F380035007C3
:10AC5800069300F18680510679D53EB130460399B6
:10AC6800D047002870DB069B01351E4630226FE076
:10AC780019075ABFC3F300135E012B26DDE9102321
:10AC8800002BBFF665AF524263EB43032D26CDE997
:10AC980010235DE700265BE700269DF848200DF1AC
:10ACA8003E03DB1B6FF386129B458DF848207FF629
:10ACB8005DAFABEB0303139358E7109880B30DF126
:10ACC8003E080AAB0021CDF8008012AAFFF79AFCD3
:10ACD800BDF84A30BBF1000F03F0EF0343F4F04333
:10ACE80043F010030746ADF84A30D5DA00283FF4A0
:10ACF800DDAEA8EB000082E7109B07293FF6D6AE31
:10AD0800DFE801F00C04060C08080C0C1D70CDE6F9
:10AD18001D80CBE6EA17C3E90052C7E61D60C5E609
:10AD2800DFF8BC800646A8F10507052075E71A0775
:10AD380048BF013079E71046079306920399D04738
:10AD4800DDE90623002804DA17B0BDE8F08F2022D9
:10AD58004B461946002903F1FF33ECDC4D44994674
:10AD68006D1A2EB130460399D0470028ECDB013527
:10AD78009DF84A30DA0601D41B0705D5302003991F
:10AD8800D0470028E0DB0135059B33B103999DF8D6
:10AD98004B00D0470028D7DB0135AB4405E0302015
:10ADA8000399D0470028CFDB0135ABEB0503002B17
:10ADB800F5DC43463A46504603990CF0BBFE0028A2
:10ADC800C2DB0544A944A9EB0503002B7FF76EAE4F
:10ADD80020200399D0470028B6DB0135F3E700BFF0
:10ADE800BBCB02004FF02002EFF3118382F31288ED
:10ADF800BFF36F8F0121044AC2F8401583F311880D
:10AE0800BFF36F8F002070470090034020B1034BC1
:10AE1800800143F001031847704700BFB0BE02002D
:10AE280006F0A0BF2DE9F047044607464FF0010998
:10AE3800DFF8508014B93846BDE8F08794FAA4F5D5
:10AE4800B5FA85F509FA05F32E0108EB05156FEA41
:10AE5800030A24EA03042B7B002BEBD058F80630B6
:10AE68001B694BB94644736804222846196807EAE7
:10AE78000A0700F049FADDE7284698470028D9D1A3
:10AE8800F0E700BF90BE020030B5002289B00F493C
:10AE98000F4810F040F9002200230024CDE90623D2
:10AEA8000E230C4DCDE903344FF440722846CDE90A
:10AEB8000144094B094900940AF062F908492846F7
:10AEC8000FF08CFE204609B030BD00BFEDAE01008A
:10AED800E8CD002058C90020BDB1010058E000208D
:10AEE800C0CB020001480AF0D9BA00BFE4C800206C
:10AEF8002DE9F04780461F480F460DF054F80646E6
:10AF0800002830D000252846BDE8F087237B73B1A0
:10AF18002368DB680BB12046984723681B69D3B9BF
:10AF2800636804222046196800F0EEF901361034EF
:10AF38004C45EBD3B8F1000FE5D0002DE2D0284600
:10AF4800FFF770FF0546002FF7D000214FF4A470DB
:10AF58000AF052FFF1E7204698470028E0D00AFAA5
:10AF680006F31D43E2E705464FF0010A024CDFF8FD
:10AF78000C90DDE75CD1002090BE0200A0BE02006C
:10AF8800014B53F820007047CCBE020008B50346B9
:10AF980008462BB1044A136000F03EFC002008BDAF
:10AFA8006FF01500FBE700BF84C5002010B5044C06
:10AFB800237813B903480AF071FA0123237010BDEE
:10AFC800FADA0020E4C8002010B5044606480CF060
:10AFD800EAFF3CB1054BD3E8EF1F0139C3E8E21F94
:10AFE800002AF8D110BD00BF54D1002058D100204C
:10AFF80000200146034BD3E8EF0FC3E8E21F002A05
:10B00800F9D1704754D1002070B5FFF7F1FF05461C
:10B01800074C084EB44200D370BD63685B792BB10E
:10B0280023685B6813B12946204698471034F1E736
:10B0380090BE0200A0BE020010B5044C0449204690
:10B048000CF03CFE034B1C6010BD00BFD8C70020AD
:10B05800B8BE02004CD1002008B50023064A4FF4C0
:10B0680000411370054A06481360FFF78FFFBDE8DB
:10B078000840FFF7E1BF00BFFBDA002054D10020F1
:10B08800AB7F020001460022002301480CF037BEC6
:10B09800D8C7002001480CF0D0BE00BFD8C7002098
:10B0A800024B014618680CF018BF00BF4CD10020B5
:10B0B80001480CF046BF00BFD8C7002070B5264B2A
:10B0C8001878002847D0FFF7E5FF054670B1234BF5
:10B0D800D3E8EF1F0139C3E8E21F002AF8D1204C5A
:10B0E800204EB4422DD32846FFF7DAFF1E4B1F4CE3
:10B0F8001B68002B19DD0FF0E6FF4FF47A72A0FBF6
:10B10800020302FB0131C30B43EA4143D4E90020A7
:10B118009B1A40F2E9324FEAD13161EB00019342C8
:10B1280071F1000101D3FFF76FFFD4E9003213F585
:10B138007A7342F10002C4E90032BDE87040FFF7BB
:10B14800B7BF63685B7923B12368294620461B682B
:10B1580098471034C5E770BDFADA002058D10020AE
:10B1680090BE0200A0BE020054D10020E0CD002015
:10B1780070B50D4D297861B90120FFF7B9FE0B4C68
:10B188000B4EB44206D3FFF799FF0028FBD10123E9
:10B198002B7070BD63685B791BB1236820469B6880
:10B1A80098471034EDE700BFFBDA002090BE02009C
:10B1B800A0BE020000212DE9F0470846FFF798FEDF
:10B1C800044648B340F267684FF000090AF02EFEC3
:10B1D8001A4B186030B11A4B1B68092B02DD19484D
:10B1E8000AF05CF90025184FDFF858A044B1204652
:10B1F800FFF718FE044618B94FF0FF384FF0FF3933
:10B20800FFF75CFF064628B9B5B942464B4650469B
:10B218000AF06AF93546E9E74FF0FF384FF0FF3991
:10B22800D4E72B689B691BB1002228461146984732
:10B238001035BD42F5D3E8E7044DFAE750D10020B8
:10B2480058D10020E4C80020A0BE020090BE020031
:10B2580013B518480CF0A7FE174B1B787BB14FF0BD
:10B268002003EFF3118483F31288BFF36F8FFFF786
:10B2780025FF84F31188BFF36F8F02B010BD0F4B09
:10B288001B68002BF9D050B9002200230C48CDE9E7
:10B2980000234FF4004200230BF006F8EDE70A28DC
:10B2A800EBD107480FF043FF064802B0BDE8104055
:10B2B8000AF0F4B858D10020FBDA002050D1002061
:10B2C800E8CD0020E4C8002010B5064B04461B68F2
:10B2D80098472146A06004480CF08FFDBDE8104057
:10B2E800FFF7B6BF84C50020D8C70020044A054B25
:10B2F8009B1AB1EBD30F34BF52F8310000207047CE
:10B3080058BD020090BE0200084B10B4C31A44682E
:10B318001B110133237143689A7101224368196034
:10B3280043685A7110BCFFF741BE00BF90BE0200CF
:10B338002DE9F04FC1F3CB448FB0C1F349260D4638
:10B348009046994605901734002E3CD04FF0040BD8
:10B358004FF00A0A002209AF31460BAB4046CDF840
:10B3680008B00197CDF800A0CDE90B220D92079601
:10B37800FEF792FDC0F30903181920F007008008B2
:10B388001E4663F352250693FFF77CFE044678B108
:10B398000022069B10300B900C930D924046CDE98D
:10B3A800017B0C4A0799CDF800A00BABFEF774FDA2
:10B3B80066F352254B462A46204605990FB0BDE84C
:10B3C800F04F0CF022BE24F007008008FFF75AFE69
:10B3D8000446EDE7E77F02002DE9F04F87B0044609
:10B3E800DDE9105ADDE912690F4693469846B6B36F
:10B3F8001021334652460020CDF80090CDF8149025
:10B40800FEF776FB0146174B04F007040BF0070B19
:10B41800E40003EA412305F1170044EA8B141C43B6
:10B428000844114B20F0070003EAC54380081C4379
:10B438000391FFF727FE054640B13EB13346524619
:10B448000399CDF800901030FEF752FB4346224690
:10B458003946284607B0BDE8F04F0CF0D6BD314656
:10B46800D1E700BF00FE07000000F87F0EB403B567
:10B4780003AB53F8042B0146044801930CF0ECFD90
:10B4880002B05DF804EB03B0704700BF898002008A
:10B49800CA0605D48B064CBF02490349FFF7E6BF2D
:10B4A800704700BF81E9020080E902002DE9F04FF2
:10B4B80089B09A46DDE913739DF848B00593159B4A
:10B4C80004460D46169E06920493BBF1000F00F049
:10B4D800858006F0080307930CF07FFD06F002094B
:10B4E8000246002849D020468549FFF7BFFF80461D
:10B4F800B9F1000F08D016F0440F40D12A46204673
:10B508008049FFF7B3FF804406F0010353B17E4B37
:10B51800204653F82B207D4B7D49002A08BF1A4648
:10B52800FFF7A4FF06F00803002B54D0794B204600
:10B5380053F82B207849FFF799FF0546069B2BB156
:10B548001A4620467549FFF791FF0544BAF1000FE6
:10B5580005D0524620467249FFF788FF0544454406
:10B56800002F49D1049B002B4FD1F30700F1C18074
:10B5780031462046FFF78CFFB5E08046B8E7694BB7
:10B5880018680028BFD0684B4FF47A791B684FF4CD
:10B598006161B5FBF3F5B5FBF0F300FB135509FB4F
:10B5A80005F5B3FBF1F2B5FBF0FE4FF03C0C01FBE7
:10B5B800123100FB1E55B1FBFCF309FB05F5B5FB89
:10B5C800F0F50CFB131120460091CDE901E5574930
:10B5D800FFF74CFF97E706F00805AFE7BAF1010F50
:10B5E80006D1002F65D1049B002B7CD000250CE0F0
:10B5F800002FF8D04E485DE04E483B4622464E4963
:10B608000BF04DFF049B002B69D0DFF83081DFF889
:10B618003091049F3146102F204628BF10274FF045
:10B62800000AFFF735FF554546DC059B494620468D
:10B638001A78FFF71BFF4FF0010A1AF0070F03D122
:10B6480041462046FFF712FF57453CD9059B49461E
:10B65800204613F80A20FFF709FF0AF1010ABAF198
:10B66800100FEAD14FF0000A20463649FFF7FEFED8
:10B678005246059B20469A5C334B995C11F0970F14
:10B6880008BF2E223149FFF7F1FE0AF1010ABAF18B
:10B69800100F1DD01AF0070F03D141462046FFF7BF
:10B6A800E5FE57455246E4D841462046FFF7DEFE00
:10B6B800EBE720485D46A0E741462046FFF7D6FE67
:10B6C8000AF1010AAFE720462149FFF7CFFEC4E798
:10B6D800059B3B440593049BDB1B049399D1BBF169
:10B6E800000F7FF442AF204609B0BDE8F04F0CF0E0
:10B6F800BABC2046054A0649FFF7B8FE38E700BF3E
:10B70800DACB0200DECB0200DCBE0200D5CB0200A1
:10B7180062DC0200F0BE020003CC020009CC020089
:10B728000DCC020064D1002060D10020E7CB0200DC
:10B73800B780020089800200618002001ACC0200F2
:10B7480012CC02001CCC020021EC020031DD020008
:10B7580018CC02002DE9F0410F884B6805460C46CD
:10B7680090468E6886B0C7F382175BB1134A9B1A5E
:10B7780043F3CF0100291FDB2078C0F3C200FFF795
:10B78800B5FD0346214651F8102B6088C2F34922C3
:10B79800002A01EB020408BF0021C0F3CB00CDE969
:10B7A8000308CDE901140022314628460097FFF727
:10B7B8007DFE06B0BDE8F0810023E3E758BD020036
:10B7C80042F20F7373B58B4228BF0B4605680446D7
:10B7D800052168460D4A0BF0E9FE064663682846CF
:10B7E8000B225B680A490CF02AFC636832466946FA
:10B7F80028465B680CF023FC63681B2228465B68BC
:10B8080004490CF01CFC02B070BD00BFD1C8020096
:10B818003ACC02001ECC020000210123064A9042C5
:10B8280006D8064A01B901231360054B1860704712
:10B83800012140085B00F2E740420F0060D1002080
:10B8480064D10020014B0020196070477CD1002092
:10B858000122024B02481A700CF005BCFDDA0020E8
:10B8680020BF02000148FFF7ABBF00BF20BF0200A6
:10B8780010B5064B0C461868FFF782FB2146BDE859
:10B88800104003460F220248184700BF7CD1002011
:10B8980020BF0200F8B50D460446064F4618B442CC
:10B8A80001D12846F8BD14F8011BBB6801485B6844
:10B8B8009847F4E7B0BA02002DE9F04105460E4674
:10B8C8001746104CDFF84080444507D30CF09BFD29
:10B8D8006A2303604FF0FF30BDE8F0812368AB4274
:10B8E80000D063B93A4631462846A368984730B134
:10B8F8003A4631462846E368BDE8F0411847103417
:10B90800E2E700BF48BD020058BD02002DE9F04F34
:10B918004FF000089BB0CDE90401194610461D46BA
:10B9280014460FF0D6FBDDE9049B4746CDE9060136
:10B938000BAB0893CDF80C80BBF1000F20D1002F82
:10B9480064D0B5F1FF3F08BFB4F1FF3F17BF4FF414
:10B958007A734FF0FF34A4FB0334DB0B18BF43EAC0
:10B968004444059B4FF4827200934146049B03981C
:10B9780001940CF0AFFB064630461BB0BDE8F08FD3
:10B98800D9F80000002820DB0AAA09A9FEF774FCF0
:10B998000646D0B14FF0FF324FF0FF330A980CF053
:10B9A800A8FB1AAB019308AB00934FF481724B4686
:10B9B800314609980CF08EFB82461AF1780F0A98E6
:10B9C80008D100240CF097FB254609F108090BF172
:10B9D800FF3BB1E71AF1120F0BD1039B1BB10CF01F
:10B9E8008AFB0127F1E7099BB04603930CF083FB20
:10B9F800F7E70CF080FBBAF1000FE6DA0CF003FD74
:10BA0800CAF100034FF0FF360360B5E754EA0503B7
:10BA180010D0B5F1FF3F08BFB4F1FF3F0AD00AF0DC
:10BA2800BFFB069B1C1A079B63EB0105002DBCBFDF
:10BA38003C4625464FF0000A08990BAF3A4BC91B04
:10BA4800891059432B46224638460AF079FC00F102
:10BA58000B030B2B804604D8344E1E4116F001060A
:10BA680004D00CF0D0FCC8F10003CBE7B14608972E
:10BA7800DDE90478B8F1000F1CD1B9F1000F3FF4EB
:10BA88007BAF002E7FF478AF54EA05033FF474AF20
:10BA9800B5F1FF3F08BFB4F1FF3FCDD00AF080FBFE
:10BAA800069B1C1A079B63EB0105012C75F100032B
:10BAB800C2DA61E73868A7F806A000282CDB0AAAD2
:10BAC80009A9FEF7D9FB834618B92023FB80013664
:10BAD80022E04FF0FF324FF0FF330A980CF009FBD9
:10BAE80008AB594640F20312009309983B460CF004
:10BAF800F1FA83460A980CF0FEFA1BF10B0F0FD0EF
:10BB0800BBF1000F04D00CF07EFCCBF1000379E709
:10BB1800B7F90630002BDAD1083708F1FF38A9E762
:10BB28004FF00109F8E700BFCDCCCCCC7EF7FFFF82
:10BB3800014B1860704700BF80D1002010B4034C3F
:10BB480024682468A44610BC604700BF80D1002048
:10BB5800014B1B685B68184780D100202DE9F8432A
:10BB680005464FF02003EFF3118683F31288BFF3E5
:10BB78006F8F4FF00C090D4B0D4F1C68DFF83480A8
:10BB88002CB986F31188BFF36F8FBDE8F883D4E929
:10BB98000123002D18BF13462BB198F8142009FB78
:10BBA80002F2B85C98472468EAE700BF9CD10020FD
:10BBB80090D10020FCD80020012270B5164B1C7DC6
:10BBC80004F01F039A40D043144B610903EB81032F
:10BBD800D3E8EF1F01EA0005C3E8E65F002EF7D1BE
:10BBE8000A4213D00E4B0F4D8BB10C236343EA1856
:10BBF8005178E85C0CF0BCF90020FFF7AFFF0C238C
:10BC08005C4300232A192B51C2E9013370BD83F329
:10BC18001188BFF36F8FEFE7FCD80020A4D1002074
:10BC2800797F020090D100202DE9F041324B074680
:10BC38001D7D4FF02003EFF3118883F31288BFF3C3
:10BC48006F8F0C246C432D4B2D4E195D1A1900294A
:10BC580047D007CA06EB040C8CE8070000221A55E7
:10BC680088F31188BFF36F8F0C236B43F05CF218D5
:10BC7800A8B37B1C10D04FF400400021D2F808C0B4
:10BC8800204C0023ECFB00411F4A2046FDF738F802
:10BC98000121381A0FF0F7F909F0F0FF0120FFF73A
:10BCA8005DFF1A4B6A0903EB8203012205F01F01AD
:10BCB8008A40D3E8EF0F1043C3E8E10F0029F8D119
:10BCC800134B3BB10C2303FB05F033185978305C58
:10BCD8000CF042F9FFF770FF09F0E4FF0120BDE81E
:10BCE800F0810146284600F015F80028B8D007C8AA
:10BCF800344484E80700B3E7FCD8002084D100204E
:10BD080090D100203F420F0040420F00A4D10020F4
:10BD1800617F02002DE9F04F85B00E4603A900F0BF
:10BD280043F84FF4004704464FF0000B1B4B039DAC
:10BD3800D3F800A0431E1BB203EB4303DFF8608077
:10BD480005EB830524B9A146484605B0BDE8F08F48
:10BD5800C446594668680023E0FB07C1114A60469B
:10BD6800FCF7CEFFC44659460190A8680023E0FBC3
:10BD780007C10C4A6046FCF7C3FFBAF1FF3FA9466A
:10BD880001D0824505D9731CDED0019B1844B0420E
:10BD9800DAD9013CA4B20C3DD4E700BF88C5002025
:10BDA8003F420F0040420F0008B9024B0B600020D1
:10BDB800704700BF30BF0200034610B588B08DF849
:10BDC80007300DF1070302930123094ACDE9051352
:10BDD80010680393002207238DF810208DF81C307B
:10BDE800836802229C6802A94623A04708B010BDB8
:10BDF800A8D1002070B586B00E460DF107010546A2
:10BE08001446FFF7D9FFC8B99DF807308DF80850D8
:10BE180023EA06010A4B44EA0102186802AB0393BD
:10BE280002238DF807208DF8092004938DF814302B
:10BE3800836801229C6803A94623A04706B070BD09
:10BE4800A8D1002010B504460EF037FE18B1002026
:10BE5800024B1C6010BD6FF01200FBE7A8D1002058
:10BE6800014910220A60704710ED00E072B64040A8
:10BE780080F31188BFF36F8FBFF34F8F30BF62B667
:10BE8800BFF36F8F704700BF72B6494081F31188C6
:10BE9800BFF34F8F20BF80F3118862B6704700BF91
:10BEA8002DE9F04781460C4600AF00294CD0D1E976
:10BEB80000126E468AB0A3686D464FF0050AA84680
:10BEC8002548C5E90723C5E9050148F810AF00234F
:10BED80042464FF421512148FFF72AFAD4E90312C8
:10BEE800B5466369AD461E48C5E90723C5E905019E
:10BEF800C5F810A0002342464FF421511748FFF718
:10BF080017FAB54688B0E3696D464FF0030AA846AC
:10BF1800144AC5E9052348F810AF002342464FF4F8
:10BF2800C2510E48FFF704FAB546A369AD460E4A5A
:10BF3800C5F810A0C5E90523002342464FF4C251B5
:10BF48000648FFF7F5F9B5462146484608F06AFF66
:10BF5800BD46BDE8F08700BF05CD020068BE0200FF
:10BF680034CD020063CD020072CD020040B2002839
:10BF780007DB01234109034A00F01F00834042F810
:10BF88002130704700E100E040B200280CDB0122BC
:10BF98000649430900F01F008240203341F823205E
:10BFA800BFF34F8FBFF36F8F704700BF00E100E012
:10BFB800054B420953F82220012300F01F0003FA21
:10BFC80000F01040704700BF00E100E040B20028D8
:10BFD80001F10101ACBF00F16040064B4FEA41118D
:10BFE800C9B2ABBF00F5614000F00F0080F8001344
:10BFF8001954704714ED00E030BFFFF7FDBF00BFD4
:10C008000B4A08B50B4B22F07F029A60BFF34F8FA3
:10C01800BFF36F8FD3F8882022F47002C3F888200A
:10C0280008F0BAFF09F07AFF00F0B0FB08F0F4FF5F
:10C038000080010000ED00E0094A0A499368096898
:10C048009867D96708494B6843F080534B600023D1
:10C0580083F31188BFF36F8F9368D86F704700BF61
:10C06800FCD80020ECC4020000ED00E015498A6805
:10C0780082F881E04FF030001044EFF3098C80E83B
:10C08800F01F202080F31288BFF36F8F0E4F4FF000
:10C098000066CA698A603E6092F981E0906F002369
:10C0A800936780F3118802F1300090E8F01F8CF359
:10C0B800098802F1000004B50CF066F9BDE80440F7
:10C0C80070470000FCD8002004ED00E01EF0040FCB
:10C0D8000CBFEFF30880EFF30980816911F8021CA7
:10C0E8000229FFD001B50CF040F901BD42F8203C0F
:10C0F800009B0D4942F81C3C019B21F0010142F8CC
:10C10800183C029B42F8081C42F8143C4FF080731C
:10C1180042F8043C002383674FF43C43203A02650D
:10C12800C0F88030704700BFCF750200084B986098
:10C13800836E83F30B88104681F30988002163B668
:10C1480081F31188BFF36F8F002200230BF03BFAB5
:10C15800FCD8002001B572B60B4A906900281EBFB2
:10C16800002191610EF041FD62B6EFF30580A0F168
:10C1780010004FEAC0000549014409C99847BDE8C5
:10C188000140034908470000FCD8002010BB02000A
:10C198009DC10100044B9968D869884203D00349BE
:10C1A8004FF080520A607047FCD8002004ED00E090
:10C1B8002DE9F04186B006460D4600AF0224414BFA
:10C1C8004FF482517B6140483C6107F110020CF04A
:10C1D800DFF83E4B9B6ADB0609D53D4B4FF4825195
:10C1E800C7E90443384807F110020CF0D1F8374B7F
:10C1F8009B6A18070AD5374B4FF482517B6102239B
:10C2080031483B6107F110020CF0C2F82F4CA36AC9
:10C21800990722D5E846304B07F110027B610223CB
:10C228004FF482513B6128480CF0B2F8636BA26A64
:10C23800120612D588B06A4628492348C2E9051370
:10C2480003234FF4C25142F8103F0CF0A1F8C54641
:10C258001EB1A36A23F08003A3621C4B9B6ADC0710
:10C268000AD51F4B4FF482517B61022316483B616C
:10C2780007F110020CF08CF8144B9B6A98060AD54B
:10C28800184B4FF482517B6102230F483B6107F141
:10C2980010020CF07DF800200C4B18379A6AD10672
:10C2A80058BF9A6A9A6A920642BF5A6A22F40052A2
:10C2B8005A629A6A42F0FF029A622870BD46BDE847
:10C2C800F08100BFA0CD020068BE020000ED00E0D2
:10C2D800B6CD0200E9CD0200FCCD020014CE02006A
:10C2E8002ACE020049CE02002DE9F04186B006466A
:10C2F8000D4600AF02243E4B4FF482517B613D480E
:10C308003C6107F110020CF043F83B4B9B6AD904DF
:10C3180009D53A4B4FF48251C7E90443354807F130
:10C3280010020CF035F8344B9B6A1A050AD5344BC9
:10C338004FF482517B6102232E483B6107F11002C2
:10C348000CF026F82C4CA36A9B0522D5E8462D4B09
:10C3580028487B61022307F110023B614FF48251A8
:10C368000CF016F8A36BA26A100412D588B06A46BE
:10C3780025492048C2E9051303234FF4C25142F866
:10C38800103F0CF005F8C5461EB1A36A23F400431C
:10C39800A362194B9B6A59050AD51C4B4FF482516D
:10C3A8007B61022313483B6107F110020BF0F0FF99
:10C3B800114B9A6AD20515D5154B7B6102234FF4B0
:10C3C80082510C483B6107F110020BF0E1FF00209D
:10C3D800094A1837936A43F47F4393622870BD462D
:10C3E800BDE8F0819B6A9B04F1D50A4BE5E700BFE5
:10C3F80078CE020068BE020000ED00E08ECE02009A
:10C40800E9CD02009FCE0200B8CE0200CDCE0200D8
:10C41800E8CE020049CE020010B586B002243A4B9D
:10C428004FF48251394804AA059304940BF0B0FFE5
:10C43800374B9B6A9B0108D5364B4FF482513348E2
:10C4480004AACDE904430BF0A3FF314B9B6ADC013E
:10C4580009D5314B4FF48251059302232B4804AA86
:10C4680004930BF095FF2A4B9C6A14F4801409D0AE
:10C4780002242A4B4FF48251244804AA05930494B9
:10C488000BF086FF224B9B6A180309D5244B4FF407
:10C498008251059302231D4804AA04930BF078FFE8
:10C4A8001B4B9B6A590309D51E4B4FF482510593C8
:10C4B8000223164804AA04930BF06AFF144B9B6AE4
:10C4C8009A0309D5184B4FF48251059302230F485C
:10C4D80004AA04930BF05CFF0D4B9B6ADB0309D5A0
:10C4E800124B4FF4825105930223084804AA04937F
:10C4F8000BF04EFF064A2046936A6FEA03436FEA41
:10C508001343936206B010BD00CF020068BE02005C
:10C5180000ED00E018CF02002BCF020045CF02004B
:10C528006FCF02008DCF0200B2CF0200CCCF020045
:10C538002DE9F0478AB07D4B0446D3F804908A462B
:10C548001646002500AFC9F3080885F31188BFF324
:10C558006F8F02F07F43B3F17F4F25D1D30723D4E8
:10C56800500603D411070FD401250FE0704B4FF488
:10C578008251FB6102236F48BB6107F118020BF07F
:10C5880007FF16F0040600D0544600250023FB716F
:10C59800A8F10303092B00F2A880DFE803F0079B4A
:10C5A8009E97A6A6A6A6A6A12C46EFE7E9464FF0B9
:10C5B8000208614B07F11802FB614FF482515D4894
:10C5C800C7F818800BF0E4FE0023584EFB71F36A9D
:10C5D8009A070BD5594BC7E906834FF48251554842
:10C5E80007F118020BF0D4FE002338E0F36A002BA1
:10C5F80001DA534BEFE7F36A5B00F5D5514B07F1CE
:10C608001802C7E906834FF482514A480BF0C0FE6E
:10C618007369A26943F480737361BFF34F8FBFF3EB
:10C628006F8F736932F8022C23F480737361BFF340
:10C638004F8FBFF36F8F4DF602739A4231D188B096
:10C6480023686A4640493B48C2E9051303234FF46F
:10C65800C25142F8103F0BF09BFECD462368FA7991
:10C66800DAB907F1080604F1200C3246206861683F
:10C67800083403C264451646F7D17A6A002D50D0B3
:10C68800C2F3080121B96FEA52226FEA42227A62A4
:10C69800184607F10801FFF703FC2837BD46BDE837
:10C6A800F087B36ADBB223B10120F91DFFF780FDE3
:10C6B8000EE0B36A13F47F4F04D00120F91DFFF791
:10C6C80013FE05E0B36AB3F5803F8DD3FFF7A4FEF0
:10C6D8000346C4E70020F91DE8E70020F91DEEE74E
:10C6E8001A4BFB610223BB6177E7194A6E4619F4BE
:10C6F800F87F8AB0174B18BF13466A4616490D488B
:10C70800C2E90513A8F11003D3614FF40073138431
:10C71800124B4FF4115142F8103F0BF039FEB54659
:10C7280062E722F4FF7222F00102B0E700ED00E0B8
:10C7380025D0020068BE020048D002005FD0020087
:10C7480080D002008ED00200ADD00200C9D0020015
:10C758000CD00200F7CF0200EDD002000400000167
:10C76800044B5A6942F010025A615A6942F48062D5
:10C778005A61704700ED00E0EFF30880EFF309819C
:10C7880001B57246FFF7D4FE01BD00BF002320218A
:10C798000348C2180133412B82F80013F9D17047BE
:10C7A80000E100E0002080F31488BFF36F8F0020C1
:10C7B80080F30A8880F30B88FEF732FB00200E49CD
:10C7C8000860BFF34F8F0D4880F3088800F03EF8EB
:10C7D800202080F311880A484FF40061401880F344
:10C7E8000988EFF314800221084380F31488BFF30B
:10C7F8006F8FFFF705FC000094ED00E098FD002026
:10C8080058E40020BFF34F8F0549064BCA6802F46D
:10C81800E0621343CB60BFF34F8F00BFFDE700BF5B
:10C8280000ED00E00400FA05002318460649D1F897
:10C838009020C2F30722934200DB7047C1F898307A
:10C84800C1F8A0000133F6E700ED00E010B572B6BC
:10C85800002484F31388FFF7E7FF23464FF0FF30E7
:10C868000C4A03F120010133102B42F82100F8D1C2
:10C8780000234FF0FF30074A03F160010133102B0A
:10C8880042F82100F8D162B6BFF34F8FBFF36F8F24
:10C8980010BD00BF00E100E0084B9B6883420BD14C
:10C8A800EFF3058343B1064B5A6842F080525A6051
:10C8B8005A6A22F400425A6209F0BEBAFCD8002033
:10C8C80000ED00E01FB5094C094A2346012109483B
:10C8D80000F02AF900230393074B0121E41A01A869
:10C8E8000193029400F02AF904B010BD000004205E
:10C8F80080C5002030BF020058C9002010B50C7A4E
:10C908000B6804F01F0223F01F031A43CB68640965
:10C9180023F01F03054943EA440343F00103C1F828
:10C928009800C1F89C20C1F8A03010BD00ED00E0CF
:10C9380080B500AF88B06A46074BC2E905300323CB
:10C9480042F8103F00234FF4C2510448FEF7F0FCB0
:10C958006FF01500BD4680BD04D10200F8BD02008D
:10C968002DE9F04F144606464FF0000987B05F4D99
:10C9780000AF79607B68994535DAD6F80480B8F15C
:10C98800000F54D0B8F11F0F1BD918F01F0F18D182
:10C99800D6F800B01BF01F0F13D158460BF0FDFC62
:10C9A800824608EB0B0001380BF0F7FC82451FD0DC
:10C9B8006FF0150A6C4688B06A464D49C2E9051AF7
:10C9C80005E06C4688B06A464A4BC2E9053903233C
:10C9D80042F8103F00234FF4C2514748FEF7A8FC25
:10C9E800A5466FF0150420461C37BD46BDE8F08FFC
:10C9F8001AF1160FDED05445DCDDC5F898A0D5F83D
:10CA08009C00C5F898A0D5F8A02020F01F0042F09F
:10CA18001F08D6E900211144904201F1FF3B1ED1C5
:10CA2800D84508D131465FFA8AF00BF0BFFC09F10E
:10CA380001090C369EE7C5F898A0D5F89C3021F07E
:10CA48001F0103F01F030B433146C5F89C30E0B2C9
:10CA58000BF0ACFC10F1160FC3D0441CE7E7013A09
:10CA6800D845E0B222F01F02C5F898A008D1D5F841
:10CA7800A030314603F01F031343C5F8A030E7E7A1
:10CA8800D5F8A01001F01F010A43C5F8A0203146CF
:10CA98000BF08CFC10F1160FA3D0C5F898A0D5F8B0
:10CAA8009C203B7C08F1FF3862F304033B74D5F803
:10CAB800A0303A7C5B0863F347123A74D6E9003237
:10CAC8001344BB6023F01F03441C4344A3EB0B0334
:10CAD800E0B223F01F030F287B6102D9FFF728FF7C
:10CAE800B8E707F10801FFF709FFB6E700ED00E036
:10CAF8004DD102002AD10200F8BD02000522044BE4
:10CB0800C3F89420BFF34F8FBFF36F8F704700BFF8
:10CB180000ED00E0BFF35F8F0022024BC3F89420C2
:10CB2800704700BF00ED00E010B5034C2278FFF716
:10CB380017FF207010BD00BFFEDA00202DE9F74F67
:10CB4800294D8A4606464FF00008AB46274FD04588
:10CB58001BDAD6F80490B9F1000F3FD031680846C7
:10CB680001910BF01AFC0199044609EB0100013808
:10CB78000BF013FC84424FF014021D4B08D002FB4B
:10CB880008F36FF015024BF8032003B0BDE8F08FEF
:10CB980014F1160F2C60F8D01978A142F5DD02FBCC
:10CBA80008B0C7F89840C7F89840D7F89C4000F1FB
:10CBB8000801007B64F304000871D7F8A0000C7921
:10CBC800400860F347140C71D7F89C1021F01F013E
:10CBD8006960D7F8A01021F01F01296108F1010848
:10CBE80014350C36B3E700BFACD1002000ED00E0EF
:10CBF800FEDA002038B50E4D2C68102C15D8002010
:10CC0800FFF788FF0B4B0C4AC3F8C020844205D1BC
:10CC18000A4B00201C70FFF771FF38BD696801EBF3
:10CC28000011FFF76BFE0130F0E74FF0FF30F4E73B
:10CC38003CBF020000ED00E0AAFF4400FEDA00203D
:10CC4800014B1860704700BF8CC5002010B5074C19
:10CC58002368C2180648C0F1005101F580218A42B4
:10CC680036BF22604FF0FF30C01810BDC0D1002081
:10CC7800180A0120B0B53E4800AFFFF7E3F80446B4
:10CC880000B36D4688B06A463A4BC2E905340323BF
:10CC98004FF4C251384842F8103F0BF0B6FBAD468E
:10CCA8006D4688B06A46354B4FF4C251C2E9053427
:10CCB8000323314842F8103F0BF0A7FBAD4620464E
:10CCC800BD46B0BD0BF031FB044620B16D4688B0BF
:10CCD8006A462B4BD9E70BF034FB044620B16D466E
:10CCE80088B06A46274BD0E701200BF02FFB04469B
:10CCF80020B16D4688B06A46234BC6E701200BF089
:10CD080019FB04460028CBD107200BF0FCFA044697
:10CD180020B16D4688B06A461C4BB6E71F200BF061
:10CD2800ECFA044620B16D4688B06A46184BACE769
:10CD380007200BF0F3FA044620B16D4688B06A4626
:10CD4800144BA2E701200BF0E4FA044620B16D462B
:10CD580088B06A46104B98E7012108460BF0FBFAA9
:10CD680004460028ABD06D4688B06A460B4B8CE76A
:10CD7800E0BA02007FD1020090BD0200F8D20200A2
:10CD8800A8D10200D0D10200FED102002DD20200AB
:10CD98005AD2020085D20200B9D20200D8D20200CB
:10CDA80002460B46014808F08FBA00BFA8C8002009
:10CDB800014808F003BB00BFA8C80020F8B54FF031
:10CDC800FF304FF0FF31FFF7EBFF0C4C0C4EB44235
:10CDD800274603D3BDE8F840FFF7EABF54F8040B31
:10CDE80003689D68002DF2D02B68002BEFD0092135
:10CDF8000BF08DFB38462B689847E8E72CC90020D4
:10CE080030C9002038B5074C074DAC4200D338BDB7
:10CE1800032120460BF027FB10B920460BF089FBB5
:10CE28000434F2E72CC9002030C9002000232DE982
:10CE3800F04F022889B0054688469346CDE9063367
:10CE48004DD106A8049101461A4606E00C78013235
:10CE580001340C70D4B2082C03D038F81240002CDE
:10CE6800F4D00133082B01F10101EDD14FF0FF3768
:10CE78000126002310F8012BB24288BF5FB203F1EC
:10CE88000103DBB288BF1646082BF3D19A46012E60
:10CE98004FF03A0308BF4FF0FF370193002258467E
:10CEA80014461346BAF1040F58D118F80310034674
:10CEB80019BB302103F8021B01994170184601344F
:10CEC800E4B254452346EDDB58450AD0012D4FF016
:10CED800000340F0898000F8013C584602E0012830
:10CEE80003D0002009B0BDE8F08F2E234FF0040ACC
:10CEF8004FF0FF3706460193D0E74FF0000E4FF092
:10CF0800090CCDF808E0DFF8E4E0B1FBFEF9039185
:10CF1800CDF814900EFB1911DDF80890CC4503DB11
:10CF2800DDF80C90F14507D3DDF81490CDF808C072
:10CF380009F1300903F8019B4FF00A090CF1FF3C95
:10CF4800BCF1FF3FBEFBF9FEDFD1002119701B1AAF
:10CF580050FA83F0019B00F8013BB0E79F420DD1E6
:10CF680002B914B93A2300F8013B4FF03A0300F82C
:10CF7800013B731E23440022DCB2A0E71AB14FF034
:10CF88003A0300F8013B049B33F8142052BA12F418
:10CF98007F4FC2F307235FFA82F916D00F2BD9B25D
:10CFA8000AD9002361220BF0F0FA012361224946D5
:10CFB8000BF0EBFA012282E7092B04D83031C9B211
:10CFC80000F8011BF1E75731F9E7B9F10F0FEDD878
:10CFD800B9F1090F94BF09F1300909F157095FFA4E
:10CFE80089F900F8019BE5E7037076E700CA9A3BE8
:10CFF8002DE9F0470F6890F860503C4B3C4A0646D4
:10D0080090F85E000537042814BF104618460F60D4
:10D018000C460BF09DFBC5F34005034638B9D4E92F
:10D028000020904296F85E1004D16FF00B0318466A
:10D03800BDE8F087501C20601170D4E9008290454B
:10D04800F3D008F10102226088F800302146B6F8D2
:10D058005C000BF06BFB03460028E8D106F12C00BE
:10D068000BF076FB03460028E1D1306C6D00E8B187
:10D07800214696F860A090F808900BF069FB0AF03A
:10D08800010A03460028D2D1736C21465BB31846C7
:10D098000BF05EFB03460028C9D145F004054FEAB2
:10D0A800C90345EA4A1503F018031D43B06B38B1AC
:10D0B80021460BF04DFB03460028B8D145F080050A
:10D0C800F06B38B121460BF043FB03460028AED184
:10D0D80045F0400588F8005022463946BDE8F0473B
:10D0E80010200BF050BB0BF021FBD3E764BF02000C
:10D0F8006CBF0200D0E900239B1A012B81BF054BAE
:10D108001B881380036883BF0233436000206FF0DD
:10D118000B00704786D30200D0E900239B1A012B2D
:10D1280081BF054B1B881380036883BF02334360AC
:10D1380000206FF00B00704788D30200142290F88B
:10D1480024305343014AD358184700BF74BF020024
:10D1580030B4142590F82440024B05FB043330BC4E
:10D168005B68184774BF020010B4142490F8242098
:10D17800024B04FB023310BC9B68184774BF0200C3
:10D1880070B4142690F82450034C06FB0544E46858
:10D19800A44670BC604700BF74BF020007B50422F4
:10D1A80007480DEB020183681B689847002802DADC
:10D1B8000CF083F90190019803B05DF804FB00BFFF
:10D1C80098BA0200084B70B5C31A0D4607499B1060
:10D1D80004465943402206480BF09CFF2B46014663
:10D1E8002046BDE870401847D8D10020B76DDBB69F
:10D1F80068BA0200402373B50B4C0093041B0B461E
:10D208000D460A49A41061430646094A09480BF02D
:10D21800ADFF011E05DA30462B4602B0BDE870406E
:10D22800184702B070BD00BFD8D10020B76DDBB67B
:10D23800DF91020068BA020070B50022012104469D
:10D248000520FEF7C3FE0F4804F026FE0E4B984259
:10D2580015D104F031FE26690C4930460AF0D2FB9C
:10D2680000280BDB012535642469084904F11C00FA
:10D278000AF0C8FB002801DB0020E56470BD6FF0F0
:10D288000400FBE7CDD201000000AD0B88BF02000F
:10D2980001460C23002270B54B430848C41840339C
:10D2A800D4E90E561844A2630BF021FF2DB1324683
:10D2B8002B46BDE870400248184770BDD8D1002001
:10D2C80068BA020010B1012804D07047034B1B6CE8
:10D2D8005B0701D1FFF7DCBF704700BFD8D1002042
:10D2E80008B54FF02003EFF3118183F31288BFF3E1
:10D2F8006F8F114A136843F002001060DA0708D4F0
:10D3080081F31188BFF36F8FBDE80840012004F056
:10D31800E3BD0A4BD3F80C24D3F80C34D307EFD56C
:10D3280007480BF0E4FE81F31188BFF36F8FBDE867
:10D3380008400020FFF7ACBF28D200200050004072
:10D3480018D200207FB500220123CDE9022304ABC7
:10D35800CDE90433094A6B46CDF800D0CDF804D0A6
:10D368000BF032FF002805DB4FF4804200236846AB
:10D3780008F0BAF807B05DF804FB00BFFD910200A1
:10D3880010B54FF02003EFF3118483F31288BFF335
:10D398006F8F074A136823F00201DB07116002D47C
:10D3A80001200CF0B8FC84F31188BFF36F8F10BD17
:10D3B80028D200202DE9F041012207463549D1E85D
:10D3C800EF3FC1E8E02F0028F9D133B9324933489B
:10D3D8004B60CB608A600AF028FB7B1E012B28D8A3
:10D3E800012F06D12E4BD3F81C3403F00303022B74
:10D3F8001FD00DF0EDFB0546E8B92A4B1B78D3B1D9
:10D4080002220646264BC3F80823254CDFF89880ED
:10D41800D4F81834D4F81824D20316D503F003032B
:10D42800022B01D0012F10D175B386F31188BFF3F9
:10D438006F8FBDE8F0814FF02003EFF3118683F37F
:10D448001288BFF36F8F0125DFE7C5B13046FEF7BD
:10D458001BFDD4F81835DBB2012BD9D1D4F804213F
:10D46800002AD5D00022C4F80421D4F804210222CD
:10D47800C4F818252022C8F88021A360C8E7002135
:10D48800212008F0B9FCE4E70222054BC3F8042385
:10D49800CFE700BFD4D10020C4D10020F4D10020B0
:10D4A8000050004056E0002000E100E008B50748C1
:10D4B8000DF003FB38B10648FFF7C2FB0448FCF740
:10D4C80061FF002008BD6FF01200FBE7B0BA020050
:10D4D800DDD401000A2838B50446074D04D1AB68ED
:10D4E8000D2128465B689847AB6803485B68E1B242
:10D4F8009847204638BD00BFB0BA020030B5406832
:10D5080001F01F04057BB2F5001F85B044EA4514FD
:10D5180005D1204604F0A4FF002005B030BD002549
:10D52800B2F5800FCDE9025514D1B3F1007F0CBFDD
:10D53800042305238DF8083000232046194602AA43
:10D5480004F0C4FD1C4B984233D10121204604F05D
:10D5580043FFE1E7B3F1C06F20D0B3F1007F14BF00
:10D56800012302238DF808308368CB40D907E3D420
:10D57800B2F1A07FE0D1114A04F01F03803352F8C2
:10D588002330DB07D8D40DF107052946204604F0DF
:10D59800CFFE0B4B984203D00395CDE70323E1E779
:10D5A800284604F013FF044B9842F5D06FF00B00A7
:10D5B800B3E76FF01500B0E70000AD0B002584401D
:10D5C8000400AD0B10B504F0F1FE044668B904F090
:10D5D800C5FE084B98420AD12146074804F0A2FE2E
:10D5E800224605213120FEF7F1FC002010BD6FF026
:10D5F8000400FBE70000AD0B05D60100430970B538
:10D6080007D10B4B596821B101250C68094E85409B
:10D6180001B970BD8A682A4002D030464B689847E5
:10D628001CB1236821461C46F2E72346FAE700BFEF
:10D638002CD2002080BA02002DE9FF41476801F092
:10D648001F053B7B144645EA43150E4628460DF157
:10D65800030104F06DFE14F4403F80460BD12846C8
:10D6680004F026FF3C4B984503D19DF8030004F0D5
:10D67800A7FE00200CE000232846194602AACDE99F
:10D68800023304F023FD344B984204D06FF01500A8
:10D6980004B0BDE8F081804503D19DF8030004F093
:10D6A8008FFEA30349D540F206332340B3F5837FA9
:10D6B80019D00CD8062B17D004D8ABB1022BE5D162
:10D6C800042311E0B3F5807FE0D101230CE040F2A0
:10D6D8000222934226D0B3F5407F25D0B3F5007FD0
:10D6E800D4D1022300E007238DF8043084F480337A
:10D6F800C3F30043E0068DF805304CBF0323C4F3A1
:10D70800401321038DF8063010D501237A68B34001
:10D7180093600022284601A904F084FD0E4B98422C
:10D72800A7D0B3E70523DFE70323DDE7620341BFA3
:10D7380001237A68B340D360EBE7E3064FF00003B8
:10D748004CBF0324C4F340141A46284601A98DF897
:10D75800044004F0BBFCE1E70000AD0BF8B54468F9
:10D7680000AFE369054606699847206A0BF097FD04
:10D7780000281FDB33462046124A04F1080105F051
:10D788009BF9114B984217D06C4688B02B686A46B3
:10D798000E49C2E905134FF4007393830C4B42F80A
:10D7A800103F0C4800234FF4E251FDF7C1FD6FF024
:10D7B8000400A546BD46F8BD204605F0CFF9002077
:10D7C800F8E700BF1DD801000000AD0BFFD3020031
:10D7D80003000001C0BD020070B5446823682046FC
:10D7E800D3F80855D3F80C6505F0C8F93146284632
:10D7F80005F02EFC0546206A0BF051FD204605F089
:10D80800ADF9034B9D4214BF6FF00F00002070BDAF
:10D818000000AD0B0378012B08D0022B08D04BB9C0
:10D82800054B0B6301F1180007F038BE034BF8E70E
:10D83800034BF6E7034BF4E70000AD0B0100AE0B1A
:10D848000200AE0B0100AD0B7FB511F00103426879
:10D858000FD1C1F3420101290ED0022915D00D4A7A
:10D868000592022204924FF482510B4804AAFDF754
:10D878005FFD6FF0150005E013684FF0CC720020D3
:10D88800C3F8242507B05DF804FB13684FF0C8629D
:10D89800F5E700BF1FD40200C0BD02002DE9F04F1C
:10D8A8008DB01D46D0F804B000AFD0F81090BBF88A
:10D8B80018303A6106460C461422002107F11C0074
:10D8C800D9F834A07B610DF006FE7D774FF0FF326A
:10D8D8004FF0FF33484607F007FE09F11803FB60D5
:10D8E8004FF000080022002309F1180007F0FCFDA2
:10D8F80045463B69984501D3002438E0207A020761
:10D9080000F1EB803A6908F101039342BB600AD247
:10D91800830708D4237D80EA030202F0010203F0A2
:10D9280004031A432BD0002D3FD000236268D7F898
:10D9380014C0A918614524D96C468CB031686B466F
:10D94800DA617A696648C3E9082140F203521A8508
:10D958001A46C3E90505634B42F8103F00234FF40C
:10D9680051516148FDF7E4FCA5466FF01B04484699
:10D9780007F094FD20463437BD46BDE8F08F0123FB
:10D98800D4E7C10706D421680AEB05007B600DF0D7
:10D9980095FD7B6862682A4495B2002B40F085802B
:10D9A8003DB12B46C7F828A007E0C007D4E900120C
:10D9B8001BD500252368BB626368227A3B6202F0AC
:10D9C800010382F00202C2F340025846520107F1F5
:10D9D8001C013B7705F0F0F8444B98422CD00B33F0
:10D9E800984244D16FF00F04C1E701F06043B3F1EE
:10D9F800005FDED0BBF81A30934218D26C468AB06A
:10DA08006B4631683A48D961C3E9050240F20132F0
:10DA18001A841A46374B42F8103F4FF411512B46DF
:10DA28003148FDF785FCA5466FF015049FE7504681
:10DA38000DF044FDA588B3E700234FF48042F86851
:10DA480007F052FD0346A8B16C4688B06A462A4BD7
:10DA5800C2E90538032342F8103F234800234FF456
:10DA6800C251FDF765FC3046A546FFF7B5FE6FF0DD
:10DA780004047CE7D9F830101C4A914211D06C4656
:10DA880088B06A461D48C2F81C80C2E90501042115
:10DA980042F8101F4FF401511348FDF749FCA54601
:10DAA800E5E7237ADB0704D40025D7F808800C348F
:10DAB8001FE7BB6A9A45F7D1A04607E0A91A8DB2BD
:10DAC800D8F80C001AFA81F10DF0F8FCD8F8042007
